:020000040800F2
:10000000E8040020490100085101000853010008DC
:1000100055010008570100085901000800000000C0
:100020000000000000000000000000005B0100086C
:100030005D010008000000005F0100086101000888
:100040006301000863010008630100086301000800
:1000500063010008630100086301000863010008F0
:1000600063010008630100086301000863010008E0
:1000700063010008630100086301000863010008D0
:1000800063010008630100086301000863010008C0
:1000900063010008630100086301000863010008B0
:1000A00063010008630100086301000863010008A0
:1000B0006301000863010008630100086301000890
:1000C0006301000863010008630100086301000880
:1000D0006301000863010008010B000863010008C8
:1000E0000D030008630100086301000863010008B4
:1000F0006301000863010008630100086301000850
:10010000630100086301000863010008630100083F
:10011000630100086301000863010008630100082F
:10012000630100086301000863010008630100081F
:10013000DFF810D000F04CF800480047AD1100087F
:10014000AFF30080E80400200648804706480047D7
:10015000FEE7FEE7FEE7FEE7FEE7FEE7FEE7FEE777
:10016000FEE7FEE7A10A0008310100082DE9F05F73
:100170000546002092469B46884606468146402416
:100180001BE0284641464746224600F042F85346C7
:100190005A46C01A914110D311461846224600F023
:1001A00029F82D1A67EB01084F462246012000214D
:1001B00000F020F817EB00094E41201EA4F10104C5
:1001C000DFDC484631462A464346BDE8F09F000042
:1001D000064C074D06E0E06840F0010394E8070094
:1001E00098471034AC42F6D3FFF7A6FFB4110008CD
:1001F000D4110008202A04DB203A00FA02F1002082
:1002000070479140C2F1200320FA03F31943904054
:100210007047202A04DB203A21FA02F000217047BF
:1002200021FA02F3D040C2F120029140084319465E
:100230007047000010B504462148807907283ED158
:100240001CBB21461FA000F0FBFD2648006880F083
:100250000100244908600121234800F092FA32206D
:1002600000F06EFF0121204800F089FA142000F010
:1002700067FF01211C4800F084FA322000F060FF83
:100280000121194800F07BFA10E0214617A000F088
:10029000D7FD0121144800F074FA4FF4FA7000F011
:1002A0004FFF0121104800F06AFA00BF00BF002094
:1002B00003E0FF21024A1154401C1428F9DB10BD51
:1002C000D0000020D6B8C1EED5FDC8B7A3ACBBD8CE
:1002D000B4ABCAFDBEDD203A2030783025780D0A57
:1002E000000000000C0C014000100140CEB4D6AA62
:1002F000B4EDCEF3A3ACBBD8B4ABCAFDBEDD203A9F
:100300002030783025780D0A0000000010B54FF439
:10031000005000F01DF878B14FF4005000F012F8D2
:10032000074800F073F800F0FBF80446FFF782FF7F
:100330004FF47A7000F004FF00F06EF910BD000079
:1003400006000020014908607047000014040140C5
:10035000014600200022074B1B6803EA0102054BFF
:1003600014331B680B4013B10AB1012000E00020D8
:100370007047000000040140002123498279002ACF
:100380003AD00A46126803689A430B461A600A1D5F
:10039000126803689A430B1D1A60027911440A68B7
:1003A00003681A430A60184A0832126803689A43BD
:1003B000154B08331A601A1D126803689A43124BD2
:1003C0000C331A604279102A0ED11A1F1268036882
:1003D0001A430D4B08331A601A1D126803681A433A
:1003E000094B0C331A600DE00749427911440A6841
:1003F00003681A430A6005E0027911440A68036839
:100400009A430A60704700000004014010B504469A
:100410002146102000F0E4F810BD00000EB50121C7
:10042000102000F025FA0121084600F021FA0D21E4
:10043000022000F0F9F828208DF80B004FF400504E
:10044000ADF8080002A9094800F00EF94FF4005079
:10045000009000208DF8040008208DF80500012090
:100460008DF806006846FFF787FF0EBD00100140BB
:1004700070B5044611490D2000F0B2F802E00120E9
:1004800000F05EFE0E4800780C2802DA601E041EA2
:10049000F5D10C488079072802D10A48407A00E05B
:1004A000FF200546002004E0FF21064A1154411CAC
:1004B000C8B21428F8DB284670BD00007700002081
:1004C00000000020D000002070B5044611490C2027
:1004D00000F086F802E0012000F032FE0E480078BD
:1004E0000C2802DA601E041EF5D10C48807907281A
:1004F00002D10A48407A00E0FF200546002004E0CF
:10050000FF21064A1154411CC8B21428F8DB2846C2
:1005100070BD00006B00002000000020D000002013
:1005200010B54FF4FA60FFF7CFFFA8B94FF4FA60A7
:10053000FFF79EFF80B94FF4FA6000F025F858B934
:100540000848FFF763FF08488079072802D106486A
:10055000407A10BDFF20FCE70448FFF757FFFF205B
:10056000F7E7000026000020D00000201600002041
:1005700010B500F008F900F0EFFA00F02DFB00F0E4
:100580004BF8FFF74BFF10BD70B504461149112021
:1005900000F026F802E0012000F0D2FD0E480078BD
:1005A000102802DA601E041EF5D10C48007A0728D4
:1005B00002D10A48407A00E0FF200546002004E00E
:1005C000FF21064A1154411CC8B21428F8DB284602
:1005D00070BD00009100002000000020D00000202D
:1005E00070B505460E4600240BE0315D084800F06A
:1005F00022FC00BF8021064800F04FFB0028F9D004
:10060000641CAC42F1DB00200249087070BD0000A0
:10061000004400400000002010B502490C20FFF704
:10062000DFFF10BD3600002030B500228B071C0F05
:100630000F2303FA04F20B4B8C1053F8243093432E
:10064000084C8D1044F8253023468C1053F8243084
:100650008C07240F00FA04F42343024C8D1044F855
:10066000253030BD080001402DE9F041024600254B
:100670000026002000230024002791F803C00CF07E
:100680000F0591F803C00CF0100CBCF1000F03D063
:1006900091F802C04CEA050591F800C0BCF1000FCA
:1006A00031D0146800202BE04FF0010C0CFA00F35D
:1006B000B1F800C00CEA03069E4220D183004FF03F
:1006C0000F0C0CFA03F7BC4305FA03FC4CEA0404D4
:1006D00091F803C0BCF1280F06D14FF0010C0CFAC1
:1006E00000FCC2F814C00AE091F803C0BCF1480F46
:1006F00005D14FF0010C0CFA00FCC2F810C0401CF0
:100700000828D1D31460B1F800C0BCF1FF0F34DD6C
:10071000546800202EE000F1080C4FF0010808FAA0
:100720000CF3B1F800C00CEA03069E4221D183000D
:100730004FF00F0C0CFA03F7BC4305FA03FC4CEA2C
:10074000040491F803C0BCF1280F05D100F1080C96
:1007500008FA0CF8C2F8148091F803C0BCF1480FF5
:1007600007D100F1080C4FF0010808FA0CF8C2F8A4
:100770001080401C0828CED35460BDE8F081416150
:1007800070470161704708B54FF4A06000F056F85B
:1007900028208DF8000001208DF8030002208DF83C
:1007A000010000208DF80200684600F00FF82620B6
:1007B0008DF8000001208DF803008DF80100002065
:1007C0008DF80200684600F001F808BD70B5002100
:1007D00000230F22C47804B3154C246804F4E064A9
:1007E000C4F5E064210AC1F10403CA40447804FA64
:1007F00003F184781440214309010E4C0678A15579
:10080000047804F01F050124AC4005786D11AD009B
:1008100005F1E025C5F8004109E0047804F01F0562
:100820000124AC40044D0678761145F8264070BD91
:100830000CED00E000E400E080E100E0024901434B
:10084000024A1160704700000000FA050CED00E05C
:1008500029B1064AD2690243044BDA6104E0034A33
:10086000D2698243014BDA617047000000100240F8
:1008700029B1064A92690243044B9A6104E0034A93
:1008800092698243014B9A61704700000010024058
:1008900030B500210022002400232D4D6D6805F0A5
:1008A0000C0121B1042905D0082923D105E0294DE7
:1008B000056022E0274D05601FE0254D6D6805F4B9
:1008C0007012234D6D6805F48034022505EB9242C9
:1008D0001CB9214D554305600BE01D4D6D6805F4B5
:1008E00000351DB11C4D5543056002E0194D5543BF
:1008F000056002E0174D056000BF00BF144D6D6834
:1009000005F0F0010909154D6B5C0568DD40456097
:100910000F4D6D6805F4E061090A104D6B5C456888
:10092000DD4085600A4D6D6805F46051C90A0B4DC4
:100930006B5C4568DD40C560054D6D6805F4404160
:10094000890B074D6B5CC568B5FBF3F5056130BDE0
:100950000010024000127A0000093D00A2000020B1
:10096000B200002010B500F001F810BD0CB5002059
:10097000019000903348006840F4803031490860AD
:1009800000BF3048006800F4003000900198401C1F
:100990000190009818B90198B0F5A06FF1D12948DD
:1009A000006800F4003010B10120009001E0002048
:1009B00000900098012843D12348006840F01000BF
:1009C000214908600846006820F0030008600846D6
:1009D000006840F0020008601A4840681949486001
:1009E0000846406848600846406840F480604860B7
:1009F0000846406820F47C1048600846406840F48F
:100A0000E81048600846006840F08070086000BF49
:100A10000C48006800F000700028F9D009484068D0
:100A200020F00300074948600846406840F0020093
:100A3000486000BF0348406800F00C000828F9D166
:100A40000CBD0000001002400020024030B50146FD
:100A5000B1F1807F01D3012030BD21F07F40401EE5
:100A60004FF0E022506150170F22002807DA1307D9
:100A70001D0E094B00F00F04241F1D5503E0130742
:100A80001C0E064B1C5400BF00204FF0E02290616A
:100A9000072010610020DFE718ED00E000E400E02F
:100AA00010B51348006840F001001149086008467D
:100AB0004068104908400E494860084600680E49E1
:100AC00008400B4908600846006820F48020086050
:100AD0000846406820F4FE0048604FF41F0088601C
:100AE000FFF740FF4FF000600449086010BD0000B0
:100AF000001002400000FFF8FFFFF6FE08ED00E0E6
:100B000010B540F22551114800F0D4F8C0B10F489B
:100B100000F08CF9C4B20E480078002080B90C486F
:100B20000078142808DA0A4801780078401C084A3E
:100B300010700848445403E00548007804490870E0
:100B400040F22551014800F08DF810BD00440040EE
:100B500000000020D000002000B585B00121042055
:100B6000FFF786FE01218803FFF782FE18208DF82B
:100B700013004FF40070ADF8100003208DF8120040
:100B800004A91348FFF770FD04208DF8130000023C
:100B9000ADF8100004A90E48FFF766FD4FF416509B
:100BA00000900020ADF80C000C20ADF80A000020E9
:100BB000ADF80800ADF80600ADF804006946054838
:100BC00000F0C8F80121034800F05BF805B000BD53
:100BD000000801400038014000B585B00121042023
:100BE000FFF746FE01214804FFF732FE18208DF87A
:100BF00013000420ADF8100003208DF8120004A9A2
:100C00001648FFF731FD04208DF813000820ADF8D9
:100C1000100004A91148FFF727FD4FF46140009030
:100C20000020ADF80C000C20ADF80A000020ADF853
:100C30000800ADF80600ADF804006946084800F069
:100C400089F8012240F22551054800F05DF80121A4
:100C5000034800F016F805B000BD00000008014090
:100C60000044004010B50022002340F66A14A1425F
:100C700000D100BF0A1201249440A3B2DC430480D7
:100C800010BD21B1828942F40052828104E0828940
:100C90004DF6FF731A408281704702460020B1F57D
:100CA000007F00D100BF13880B400BB1012000E092
:100CB0000020704770B50246002400230025002064
:100CC00040F66A16B14200D100BFC1F3421501F0EF
:100CD0001F03012606FA03F3012D02D19689334042
:100CE00006E0022D02D1168A334001E0968A334095
:100CF0000C12012606FA04F41688344013B10CB124
:100D0000012000E0002070BDF0B50346002400265D
:100D10000025002040F66A17B94200D100BF1846EE
:100D2000C1F3421401F01F06012707FA06F5012C52
:100D300001D10C3004E0022C01D1103000E014305D
:100D40001AB107682F43076002E00768AF430760E6
:100D5000F0BD00002DE9F04786B005460E460024A0
:100D6000A24600BFA1460027B08900B100BF2F46B0
:100D70002C8A4CF6FF700440F08804432C82AC8926
:100D80004EF6F3100440B088318908437189084356
:100D90000443AC81AC8A4FF6FF400440B089044361
:100DA000AC8201A8FFF774FD1F48874202D1DDF82D
:100DB00010A001E0DDF80CA0A88900F4004040B1CB
:100DC0000AEBCA0000EB0A1031684900B0FBF1F8E9
:100DD00007E00AEBCA0000EB0A1031688900B0FB9B
:100DE000F1F86420B8FBF0F004012009642101FB54
:100DF0001089A88900F4004040B1322000EBC900FE
:100E0000B0FBF1F000F00700044308E0322000EBF3
:100E100009106421B0FBF1F000F00F0004432C81B5
:100E200006B0BDE8F0870000003801400146888820
:100E3000C0F308007047C1F30802828070470000C9
:100E40000FB4054B10B503A9044A029800F018F836
:100E500010BC5DF814FB000089110008CC000020D4
:100E600002E008C8121F08C1002AFAD17047704773
:100E7000002001E001C1121F002AFBD170470000D1
:100E80002DE9FF4F8DB09B460F460446002606E035
:100E900025280BD05A460F999047641C761C207861
:100EA0000028F5D111B03046BDE8F08F0025A846E6
:100EB0000122984900E0054314F8013F203B02FA63
:100EC00003F00842F7D120782E2817D114F8010F2B
:100ED00045F004052A280ED06FF02F022078A0F1EB
:100EE000300109290AD808EB880102EB410100EB27
:100EF0000108641CF2E757F8048B641C20786C2806
:100F00000DD004DC4C2812D06A2811D104E07428DA
:100F10000DD07A280CD10AE045F4001507E061787D
:100F200045F48015814202D1641C05F58015641CCE
:100F30002078692844D008DC0028B3D0582867D02E
:100F400063280FD0642808D13AE0702865D0732850
:100F500012D075285AD078285AD05A460F999047FF
:100F6000761CD5E017F8040B8DF8000000208DF8F2
:100F70000100E946012003E057F8049B4FF0FF30E1
:100F800069074FF0000501D40AE06D1C45450DDAF4
:100F90008542FADB19F805100029F6D106E06D1C30
:100FA0008542FCDB19F805100029F8D12E4404E035
:100FB00019F8010B5A460F9990476D1EF8D2A7E019
:100FC0000A200021CDE90801C5F3025002280CD007
:100FD00001CFC117021E71F100020CDA0023D0EB21
:100FE000030063EB01012D2208E0FF1D27F0070736
:100FF000F7E80201EEE72A0504D52B228DF8282018
:1010000001223CE0EA073AD02022F7E70A2000E07C
:1010100010200021CDE9080107E01020002145F053
:101020000405CDE908014FF00808C5F30250022875
:1010300010D001CF00214FF0000A2A0720D52278D6
:10104000702A0DD0DDE908C38CF0100C5CEA030CAB
:101050000CD015E0FF1D27F00707F7E80201EAE7CB
:1010600040228DF828204FF0010A0CE050EA0103DD
:1010700006D030238DF828308DF8292002229246A0
:101080002278582A04D024A20DF120090B9209E0FD
:1010900026A2F9E7DDE90823FFF768F80B9B9B5CC4
:1010A00009F8013D50EA0102F4D1ADEB090020300E
:1010B0000890680701D44FF001080899884503DDBE
:1010C0000898A8EB000000E000208046002506E01C
:1010D0000AA85A46405D0F9990476D1C761C5545ED
:1010E000F6DB04E030205A460F999047761CB8F1A1
:1010F0000001A8F10108F5DC05E019F8010B5A46DA
:101100000F999047761C0899481E08900029F4DC36
:10111000641CC4E6092801003031323334353637D7
:101120003839616263646566000000003031323333
:1011300034353637383941424344454600000000D3
:1011400070B504460F4800684FF47A71B0FBF1F6B1
:101150003046FFF77BFC002508E000BF4FF0E020A1
:10116000006900F480300028F8D06D1CA542F4D34B
:101170004FF0E020006920F001004FF0E02108610D
:1011800070BD0000B800002070B504460D46E1B205
:101190000548FFF750FE00BF80210348FFF77DFDA3
:1011A0000028F9D0204670BD00380140FFF7E0F973
:1011B00000BFFEE7D411000800000020D0000000AE
:1011C000600E0008A4120008D000002018040000DF
:1011D000700E0008000000000000EF01FFFFFFFF9D
:1011E0000100073C030101000049EF01FFFFFFFF81
:1011F0000100073C020404020050EF01FFFFFFFF63
:101200000100073C02020202004CEF01FFFFFFFF5A
:10121000010003330037EF01FFFFFFFF0100030D63
:101220000011EF01FFFFFFFF010003300034EF0169
:10123000FFFFFFFF0100083100000400160000EF6F
:1012400001FFFFFFFF010003010005EF01FFFFFFAA
:10125000FF01000402010008EF01FFFFFFFF010092
:101260000402020009EF01FFFFFFFF010008040173
:101270000000FFFF020C0000000001020304010255
:1012800003040607080902040608000000A24A0435
:101290000000000000000000010203040607080926
:0412A000000000004A
:0400000508000131BD
:00000001FF
