:020000040800F2
:10000000D0040020490100085101000853010008F4
:1000100055010008570100085901000800000000C0
:100020000000000000000000000000005B0100086C
:100030005D010008000000005F0100086101000888
:100040006301000863010008630100086301000800
:1000500063010008630100086301000863010008F0
:1000600063010008630100086301000863010008E0
:1000700063010008630100086301000863010008D0
:1000800063010008630100086301000863010008C0
:1000900063010008630100086301000863010008B0
:1000A00063010008630100086301000863010008A0
:1000B0006301000863010008630100086301000890
:1000C0006301000863010008630100086301000880
:1000D0006301000863010008310C00086301000897
:1000E000C1040008630100086301000863010008FF
:1000F0006301000863010008630100086301000850
:10010000630100086301000863010008630100083F
:10011000630100086301000863010008630100082F
:10012000630100086301000863010008630100081F
:10013000DFF810D000F04CF800480047E11200084A
:10014000AFF30080D00400200648804706480047EF
:10015000FEE7FEE7FEE7FEE7FEE7FEE7FEE7FEE777
:10016000FEE7FEE7D10B0008310100082DE9F05F42
:100170000546002092469B46884606468146402416
:100180001BE0284641464746224600F042F85346C7
:100190005A46C01A914110D311461846224600F023
:1001A00029F82D1A67EB01084F462246012000214D
:1001B00000F020F817EB00094E41201EA4F10104C5
:1001C000DFDC484631462A464346BDE8F09F000042
:1001D000064C074D06E0E06840F0010394E8070094
:1001E00098471034AC42F6D3FFF7A6FFE812000898
:1001F00008130008202A04DB203A00FA02F100204C
:1002000070479140C2F1200320FA03F31943904054
:100210007047202A04DB203A21FA02F000217047BF
:1002200021FA02F3D040C2F120029140084319465E
:100230007047000010B5044658488079072871D1EE
:100240000B2C70D2DFE804F0062A3B4C929292927B
:100250005D708100214652A000F092FE584800686F
:1002600080F00100564908600121564800F01BFB50
:10027000322001F005F80121524800F012FB142051
:1002800000F0FEFF01214F4800F00DFB322000F08E
:10029000F7FF01214B4800F004FB78E021464AA01B
:1002A00000F06EFE0121474800F0FDFA4FF4FA70AD
:1002B00000F0E6FF0121434800F0F3FA67E0214631
:1002C0004AA000F05DFE01213E4800F0ECFA4FF438
:1002D000FA7000F0D5FF01213A4800F0E2FA56E04A
:1002E00021464CA000F04CFE0121364800F0DBFA1C
:1002F0004FF4FA7000F0C4FF0121324800F0D1FA47
:1003000045E021464CA000F03BFE01212D4800F0C5
:10031000CAFA4FF4FA7000F0B3FF0121294800F047
:10032000C0FA34E038E021E021464BA000F028FE7E
:100330000121244800F0B7FA4FF4FA7000F0A0FF52
:100340000121204800F0ADFA21E021464BA000F049
:1003500017FE01211B4800F0A6FA4FF4FA7000F0D6
:100360008FFF0121174800F09CFA10E021464CA0B5
:1003700000F006FE0121134800F095FA4FF4FA70E0
:1003800000F07EFF01210F4800F08BFA00BF00BF94
:100390004FF4FA7000F074FF10BD0000BC000020A4
:1003A000D6B8C1EED5FDC8B7A3ACBBD8B4ABCAFDB7
:1003B000BEDD203A2030783025780D0A000000009C
:1003C0000C0C014000100140CAFDBEDDB0FCBDD3E5
:1003D000CAD5B4EDCEF3A3ACBBD8B4ABCAFDBEDD79
:1003E000203A2030783025780D0A0000B4ABB8D020
:1003F000C6F7C9CFC3BBD3D0CAD6D6B8A3ACBBD877
:10040000B4ABCAFDBEDD203A2030783025780D0A25
:1004100000000000C9A8C3E8CDBCCFF1CAA7B0DC7A
:10042000A3ACBBD8B4ABCAFDBEDD203A20307830D7
:1004300025780D0A00000000D6B8CEC6B2BBC6A50E
:10044000C5E4A3ACBBD8B4ABCAFDBEDD203A2030B6
:10045000783025780D0A0000CEB4CBD1CBF7B5BDEE
:10046000D6B8CEC6A3ACBBD8B4ABCAFDBEDD203A6D
:100470002030783025780D0A00000000CCD8D5F760
:10048000BACFB2A2CAA7B0DCA3ACBBD8B4ABCAFD8A
:10049000BEDD203A2030783025780D0A00000000BB
:1004A000CEB4D6AAB4EDCEF3A3ACBBD8B4ABCAFDE0
:1004B000BEDD203A2030783025780D0A000000009B
:1004C00010B54FF4005000F029F8C8B14FF40050B7
:1004D00000F01EF80C4800F07FF801210B4800F0F6
:1004E000E2F9322000F0CCFE0121084800F0D9F9F1
:1004F00042F21071002000F077F80446FFF79AFEF0
:10050000012000F009F910BD060000200010014094
:1005100001490860704700001404014001460020B2
:100520000022074B1B6803EA0102054B14331B68CA
:100530000B4013B10AB1012000E000207047000019
:1005400000040140002123498279002A3AD00A465A
:10055000126803689A430B461A600A1D1268036802
:100560009A430B1D1A60027911440A6803681A4302
:100570000A60184A0832126803689A43154B083318
:100580001A601A1D126803689A43124B0C331A60E2
:100590004279102A0ED11A1F126803681A430D4BB4
:1005A00008331A601A1D126803681A43094B0C338A
:1005B0001A600DE00749427911440A6803681A433A
:1005C0000A6005E0027911440A6803689A430A60E8
:1005D000704700000004014010B504462146102079
:1005E00000F07EF810BD000070B504460D462012E4
:1005F0001B498872CC720846807A5430C97A084404
:1006000000121749C8730846807A5430C97A0844E2
:1006100013490874112000F063F802E0012000F093
:100620002FFE104800780C2803DA681E80B2051EE1
:10063000F4D10D48407A28B90C48FFF7CDFF0A489D
:10064000407A70BD35B90A490C2000F049F83220D3
:1006500000F016FE0748FFF7BFFFFF20F1E700009C
:100660005A00002000000020BC00002026000020CE
:100670004E000020160000200EB50121102000F0D1
:100680008FF90121084600F08BF900F00FF90D21D8
:10069000022000F05BF828208DF80B004FF400508A
:1006A000ADF8080002A9094800F070F84FF40050B6
:1006B000009000208DF8040008208DF8050001202E
:1006C0008DF806006846FFF73DFF0EBD00100140A3
:1006D00010B500F0D9FA00F017FBFFF7CDFF10BD01
:1006E00070B505460E4600240BE0315D084800F069
:1006F00042FC00BF8021064800F06FFB0028F9D0C3
:10070000641CAC42F1DB00200249087070BD00009F
:10071000004400400000002010B5044608490C20A9
:10072000FFF7DEFF02E0012000F0AAFD0548007897
:100730000C2802DA601E041EF5D10348407A10BD71
:100740003600002000000020BC00002030B5002250
:100750008B071C0F0F2303FA04F20B4B8C1053F87A
:1007600024309343084C8D1044F8253023468C10D8
:1007700053F824308C07240F00FA04F42343024C6E
:100780008D1044F8253030BD080001402DE9F041BE
:10079000024600250026002000230024002791F8AF
:1007A00003C00CF00F0591F803C00CF0100CBCF165
:1007B000000F03D091F802C04CEA050591F800C083
:1007C000BCF1000F31D0146800202BE04FF0010C79
:1007D0000CFA00F3B1F800C00CEA03069E4220D1E7
:1007E00083004FF00F0C0CFA03F7BC4305FA03FC2F
:1007F0004CEA040491F803C0BCF1280F06D14FF075
:10080000010C0CFA00FCC2F814C00AE091F803C015
:10081000BCF1480F05D14FF0010C0CFA00FCC2F8F6
:1008200010C0401C0828D1D31460B1F800C0BCF13E
:10083000FF0F34DD546800202EE000F1080C4FF06B
:10084000010808FA0CF3B1F800C00CEA03069E4256
:1008500021D183004FF00F0C0CFA03F7BC4305FACB
:1008600003FC4CEA040491F803C0BCF1280F05D145
:1008700000F1080C08FA0CF8C2F8148091F803C0D3
:10088000BCF1480F07D100F1080C4FF0010808FA3D
:100890000CF8C2F81080401C0828CED35460BDE884
:1008A000F0814161704701617047000008B54FF465
:1008B000A06101F00702144B18684FF6FF031840BF
:1008C000124B034343EA02200F4B186000BF28205D
:1008D0008DF8000001208DF8030002208DF8010042
:1008E00001208DF80200684600F012F826208DF8ED
:1008F000000001208DF803008DF801008DF8020042
:10090000684600F005F808BD0CED00E00000FA05AF
:1009100070B5002100230F22C47804B3154C24685D
:1009200004F4E064C4F5E064210AC1F10403CA40A0
:10093000447804FA03F184781440214309010E4CF1
:100940000678A155047804F01F050124AC40057811
:100950006D11AD0005F1E025C5F8004109E004780E
:1009600004F01F050124AC40044D0678761145F8CB
:10097000264070BD0CED00E000E400E080E100E006
:1009800029B1064AD2690243044BDA6104E0034A02
:10099000D2698243014BDA617047000000100240C7
:1009A00029B1064A92690243044B9A6104E0034A62
:1009B00092698243014B9A61704700000010024027
:1009C00030B500210022002400232D4D6D6805F074
:1009D0000C0121B1042905D0082923D105E0294DB6
:1009E000056022E0274D05601FE0254D6D6805F488
:1009F0007012234D6D6805F48034022505EB924298
:100A00001CB9214D554305600BE01D4D6D6805F483
:100A100000351DB11C4D5543056002E0194D55438D
:100A2000056002E0174D056000BF00BF144D6D6802
:100A300005F0F0010909154D6B5C0568DD40456066
:100A40000F4D6D6805F4E061090A104D6B5C456857
:100A5000DD4085600A4D6D6805F46051C90A0B4D93
:100A60006B5C4568DD40C560054D6D6805F440412F
:100A7000890B074D6B5CC568B5FBF3F5056130BDAF
:100A80000010024000127A0000093D00A200002080
:100A9000B200002010B500F001F810BD0CB5002028
:100AA000019000903348006840F48030314908607C
:100AB00000BF3048006800F4003000900198401CEE
:100AC0000190009818B90198B0F5A06FF1D12948AC
:100AD000006800F4003010B10120009001E0002017
:100AE00000900098012843D12348006840F010008E
:100AF000214908600846006820F0030008600846A5
:100B0000006840F0020008601A48406819494860CF
:100B10000846406848600846406840F48060486085
:100B20000846406820F47C1048600846406840F45D
:100B3000E81048600846006840F08070086000BF18
:100B40000C48006800F000700028F9D0094840689F
:100B500020F00300074948600846406840F0020062
:100B6000486000BF0348406800F00C000828F9D135
:100B70000CBD0000001002400020024030B50146CC
:100B8000B1F1807F01D3012030BD21F07F40401EB4
:100B90004FF0E022506150170F22002807DA1307A8
:100BA0001D0E094B00F00F04241F1D5503E0130711
:100BB0001C0E064B1C5400BF00204FF0E022906139
:100BC000072010610020DFE718ED00E000E400E0FE
:100BD00010B51348006840F001001149086008464C
:100BE0004068104908400E494860084600680E49B0
:100BF00008400B4908600846006820F4802008601F
:100C00000846406820F4FE0048604FF41F008860EA
:100C1000FFF740FF4FF000600449086010BD00007E
:100C2000001002400000FFF8FFFFF6FE08ED00E0B4
:100C300010B540F22551114800F0DCF8C0B10F4862
:100C400000F094F9C4B20E480078002080B90C4836
:100C50000078142808DA0A4801780078401C084A0D
:100C600010700848445403E00548007804490870AF
:100C700040F22551014800F095F810BD00440040B5
:100C800000000020BC00002000B585B00121042038
:100C9000FFF786FE01218803FFF782FE18208DF8FA
:100CA00013004FF40070ADF8100003208DF812000F
:100CB00004A91348FFF76AFD04208DF81300000211
:100CC000ADF8100004A90E48FFF760FD4FF4165070
:100CD00000900020ADF80C000C20ADF80A000020B8
:100CE000ADF80800ADF80600ADF804006946054807
:100CF00000F0D0F80121034800F063F805B000BD12
:100D0000000801400038014000B585B001210420F1
:100D1000FFF746FE01214804FFF732FEFFF7C6FD4C
:100D200018208DF813000420ADF8100003208DF872
:100D3000120004A91948FFF729FD04208DF81300BB
:100D40000820ADF8100004A91448FFF71FFD4FF468
:100D5000614000900020ADF80C000C20ADF80A00B6
:100D60000020ADF80800ADF80600ADF804006946B3
:100D70000B4800F08FF8012240F22551084800F09E
:100D800063F80121064800F01CF8C82000F078FA4A
:100D90000120FFF7C1FC05B000BD000000080140C4
:100DA0000044004010B50022002340F66A14A1421E
:100DB00000D100BF0A1201249440A3B2DC43048096
:100DC00010BD21B1828942F40052828104E08289FF
:100DD0004DF6FF731A408281704702460020B1F53C
:100DE000007F00D100BF13880B400BB1012000E051
:100DF0000020704770B50246002400230025002023
:100E000040F66A16B14200D100BFC1F3421501F0AD
:100E10001F03012606FA03F3012D02D19689334000
:100E200006E0022D02D1168A334001E0968A334053
:100E30000C12012606FA04F41688344013B10CB1E2
:100E4000012000E0002070BDF0B50346002400261C
:100E50000025002040F66A17B94200D100BF1846AD
:100E6000C1F3421401F01F06012707FA06F5012C11
:100E700001D10C3004E0022C01D1103000E014301C
:100E80001AB107682F43076002E00768AF430760A5
:100E9000F0BD00002DE9F04786B005460E4600245F
:100EA000A24600BFA1460027B08900B100BF2F466F
:100EB0002C8A4CF6FF700440F08804432C82AC89E5
:100EC0004EF6F3100440B088318908437189084315
:100ED0000443AC81AC8A4FF6FF400440B089044320
:100EE000AC8201A8FFF76CFD1F48874202D1DDF8F4
:100EF00010A001E0DDF80CA0A88900F4004040B18A
:100F00000AEBCA0000EB0A1031684900B0FBF1F8A7
:100F100007E00AEBCA0000EB0A1031688900B0FB59
:100F2000F1F86420B8FBF0F004012009642101FB12
:100F30001089A88900F4004040B1322000EBC900BC
:100F4000B0FBF1F000F00700044308E0322000EBB2
:100F500009106421B0FBF1F000F00F0004432C8174
:100F600006B0BDE8F08700000038014001468888DF
:100F7000C0F308007047C1F3080282807047000088
:100F80000FB4054B10B503A9044A029800F018F8F5
:100F900010BC5DF814FB0000BD120008B800002072
:100FA00002E008C8121F08C1002AFAD17047704732
:100FB000002001E001C1121F002AFBD17047000090
:100FC0002DE9FF4F8DB09B460F460446002606E0F4
:100FD00025280BD05A460F999047641C761C207820
:100FE0000028F5D111B03046BDE8F08F0025A846A5
:100FF0000122984900E0054314F8013F203B02FA22
:1010000003F00842F7D120782E2817D114F8010FE9
:1010100045F004052A280ED06FF02F022078A0F1A9
:10102000300109290AD808EB880102EB410100EBE5
:101030000108641CF2E757F8048B641C20786C28C4
:101040000DD004DC4C2812D06A2811D104E0742899
:101050000DD07A280CD10AE045F4001507E061783C
:1010600045F48015814202D1641C05F58015641C8D
:101070002078692844D008DC0028B3D0582867D0ED
:1010800063280FD0642808D13AE0702865D073280F
:1010900012D075285AD078285AD05A460F999047BE
:1010A000761CD5E017F8040B8DF8000000208DF8B1
:1010B0000100E946012003E057F8049B4FF0FF30A0
:1010C00069074FF0000501D40AE06D1C45450DDAB3
:1010D0008542FADB19F805100029F6D106E06D1CEF
:1010E0008542FCDB19F805100029F8D12E4404E0F4
:1010F00019F8010B5A460F9990476D1EF8D2A7E0D8
:101100000A200021CDE90801C5F3025002280CD0C5
:1011100001CFC117021E71F100020CDA0023D0EBDF
:10112000030063EB01012D2208E0FF1D27F00707F4
:10113000F7E80201EEE72A0504D52B228DF82820D6
:1011400001223CE0EA073AD02022F7E70A2000E03B
:1011500010200021CDE9080107E01020002145F012
:101160000405CDE908014FF00808C5F30250022834
:1011700010D001CF00214FF0000A2A0720D5227895
:10118000702A0DD0DDE908C38CF0100C5CEA030C6A
:101190000CD015E0FF1D27F00707F7E80201EAE78A
:1011A00040228DF828204FF0010A0CE050EA01039C
:1011B00006D030238DF828308DF82920022292465F
:1011C0002278582A04D024A20DF120090B9209E0BC
:1011D00026A2F9E7DDE90823FEF7C8FF0B9B9B5C1D
:1011E00009F8013D50EA0102F4D1ADEB09002030CD
:1011F0000890680701D44FF001080899884503DD7D
:101200000898A8EB000000E000208046002506E0DA
:101210000AA85A46405D0F9990476D1C761C5545AB
:10122000F6DB04E030205A460F999047761CB8F15F
:101230000001A8F10108F5DC05E019F8010B5A4698
:101240000F999047761C0899481E08900029F4DCF5
:10125000641CC4E609280100303132333435363796
:1012600038396162636465660000000030313233F2
:101270003435363738394142434445460000000092
:1012800070B504460C48FFF779FC002508E000BF64
:101290004FF0E020006900F480300028F8D06D1C89
:1012A000A542F4D34FF0E020006920F001004FF098
:1012B000E021086170BD00004019010070B50446CE
:1012C0000D46E1B20548FFF756FE00BF80210348F6
:1012D000FFF783FD0028F9D0204670BD003801409B
:1012E000FFF7F6F900BFFEE7081300080000002032
:1012F000BC000000A00F0008C4130008BC000020C0
:1013000014040000B00F0008000000000000EF010E
:10131000FFFFFFFF0100073C030101000049EF014F
:10132000FFFFFFFF0100073C020404020050EF0131
:10133000FFFFFFFF0100073C02020202004CEF0129
:10134000FFFFFFFF010003330037EF01FFFFFFFF47
:101350000100030D0011EF01FFFFFFFF010003304B
:101360000034EF01FFFFFFFF01000831000004001F
:10137000160000EF01FFFFFFFF010003010005EF72
:1013800001FFFFFFFF01000402010008EF01FFFF62
:10139000FFFF01000402020009EF01FFFFFFFF0150
:1013A000000804010000FFFF020C00000000010221
:1013B00003040102030406070809020406080000EA
:0413C0000000000029
:0400000508000131BD
:00000001FF
