:020000040800F2
:10000000E80500200101000841220008C120000885
:100010003D22000879010008352B0008000000008F
:10002000000000000000000000000000F1220008B5
:10003000CD01000800000000B1220008492300089B
:100040001B0100081B0100081B0100081B01000820
:100050001B0100081B010008D10100081B0100085A
:100060001B0100081B0100081B0100081B01000800
:100070001B0100081B0100081B0100081B010008F0
:100080001B0100081B0100081B0100081B010008E0
:100090001B0100081B0100081B0100081B010008D0
:1000A0001B0100081B0100081B0100081B010008C0
:1000B0001B0100081B0100081B0100081B010008B0
:1000C0001B0100081B0100081B0100081B010008A0
:1000D0001B010008152B0008252B00081B01000838
:1000E0001B0100081B0100081B010008DFF80CD0F1
:1000F00000F02AF800480047312C0008E8050020ED
:100100000648804706480047FEE7FEE7FEE7FEE7B1
:10011000FEE7FEE7FEE7FEE7FEE7FEE7BD23000899
:10012000ED000008D2B201E000F8012B491EFBD21D
:1001300070470022F6E710B513460A4604461946F2
:10014000FFF7F0FF204610BD1CB509480090094894
:1001500001900546009C06E0E06840F0010394E849
:10016000070098471034AC42F6D3FFF7C3FF0000F6
:10017000BC2C0008DC2C0008FFE7FEE784B00390ED
:100180000291019200930398C16B026C0120904090
:1001900048600098039909684860039840681028EF
:1001A00009D1FFE7019803990968886002980399CB
:1001B0000968C86008E00298039909688860019896
:1001C00003990968C860FFE704B0704770470000F2
:1001D00080B5012000F062FB80BD000081B0EFF32C
:1001E000108072B60090FFE7FEE7000085B0049033
:1001F0008DF80F100020ADF80C009DF80F10083995
:100200008DF80B100499063101918DF80300FFE77A
:100210009DF803009DF80B10884210DAFFE7019863
:100220009DF80310415CBDF80C000844ADF80C00CB
:10023000FFE79DF8030001308DF80300E8E7BDF803
:100240000C0005B07047000080B582B001900091AD
:100250000198009910224FF4FA6300F00BF902B0F4
:1002600080BD000080B582B00190019840F210017D
:10027000C2F200010D224FF4FA6300F0FBF802B065
:1002800080BD000080B582B00190019840F21D0150
:10029000C2F200010C224FF4FA6300F0EBF802B056
:1002A00080BD000080B584B002900298FFF7EAFF9D
:1002B00010BBFFE70298FFF7D5FFE0B9FFE7029810
:1002C00000F09CF8B0B9FFE702988068817AC07AA4
:1002D00040EA0120ADF8060000F0C2F8029840F2B2
:1002E0002901C2F20001FFF7AFFFBDF80600ADF82B
:1002F0000E000CE0FFE7FFE7029840F23901C2F27E
:100300000001FFF7A1FFFF20ADF80E00FFE7BDF8E9
:100310000E0004B080BD000080B582B0019001994C
:1003200040F62D00C0F60000C860019940F21D4063
:10033000C0F600004861019940F2E130C0F60000CB
:100340000861019940F2AA00C2F2000048600199D8
:1003500040F2AB00C2F200000860019940F2780060
:10036000C2F200008860019800F06AF802B080BD17
:1003700080B582B0019040F2AC00C2F2000000787B
:1003800058B3FFE740F2AC01C2F200010020087050
:10039000019840F20001C2F20001FFF755FF0198F9
:1003A000FFF780FFFFE740F60000C4F201000121E3
:1003B00000F020FC38B1FFE7642000F037FA019824
:1003C00000F03EF8EFE740F21441C4F201010120D1
:1003D0000860062000F0DCFCFFE702B080BD0000F2
:1003E00080B582B00190019940F29810C2F20000ED
:1003F000142201F0F3F902B080BD000080B582B094
:100400000190019840F24901C2F2000111224FF41B
:10041000FA6300F02FF802B080BD000080B582B012
:1004200001908DF8031001999DF8032040F2981077
:10043000C2F200004FF4807301F0AEFD02B080BD47
:1004400080B582B00190019840F25A01C2F20001D9
:100450000C224FF4FA6300F00DF802B080BD0000EA
:1004600040F60C41C4F20101086880F40070086095
:100470007047000080B586B0059004918DF80F207C
:100480000293002001900598426904989DF80F108E
:1004900090470599886809698847FFE7029898B1ED
:1004A000FFE70598C1680120884705980068007833
:1004B00028B1FFE7059801680020087004E0FFE715
:1004C000029801380290E9E7059841688068097848
:1004D000FFF78CFEADF8040005994868896800783C
:1004E000084410F8021C10F8010C40EA0120ADF895
:1004F0000600BDF80400BDF80610884205D1FFE7EC
:1005000005988068407A009002E001200090FFE7A3
:100510000098C0B206B080BD83B0019000208DF875
:100520000300019890F8210002280DD0FFE70199FF
:1005300004208863FFE70199002081F82000FFE78D
:1005400001208DF80B0021E001980168086820F077
:100550000E00086001980168086820F0010008603A
:100560000198C16B026C012090404860FFE701993F
:10057000012081F82100FFE70199002081F8200087
:10058000FFE79DF803008DF80B00FFE79DF80B00D7
:1005900003B0704780B588B0079000208DF81B002D
:1005A000079890F82100022807D0FFE70799042058
:1005B000886301208DF81B0076E0079801680868C1
:1005C00020F00E00086007980168086820F001001C
:1005D0000860079800680821C4F20201884203D12C
:1005E000FFE70120059047E0079800681C21C4F24E
:1005F0000201884203D1FFE71020049039E00798F8
:1006000000683021C4F20201884204D1FFE74FF4B0
:10061000807003902AE0079800684421C4F2020128
:10062000884204D1FFE74FF4805002901BE0079806
:1006300000685821C4F20201884204D1FFE74FF458
:10064000803001900CE0079801686C22C4F202022D
:100650004FF08070914208BF4FF480100190FFE787
:1006600001980290FFE702980390FFE70398049037
:10067000FFE704980590FFE705980421C4F2020102
:1006800008600799012081F82100FFE70799002001
:1006900081F82000FFE70798406B20B1FFE707983B
:1006A000416B8847FFE7FFE79DF81B0008B080BD5E
:1006B00083B0019000200090019820B9FFE701204D
:1006C0008DF80B0047E0019908684FF6F872CBF6F9
:1006D000FD7210444CF6CD42CCF6CC42A0FB020297
:1006E0006FF0030000EA9200086401990020C4F250
:1006F0000200C8630199022081F821000198006876
:1007000000680090009843F6F071884300900199CA
:100710004868D1F808C0CB680A6940EA0C00184361
:1007200010434A6910438A691043C969014300981C
:100730000843009000980199096808600199002019
:100740008863019A012182F82110019981F8200023
:100750008DF80B00FFE79DF80B0003B07047000019
:1007600080B586B0049003910292019300208DF829
:100770000300FFE7049890F82000012804D1FFE768
:1007800002208DF817004CE00499012081F8200028
:10079000FFE7FFE7049890F82100012832D1FFE736
:1007A0000499022081F821000499002088630498AC
:1007B0000168086820F00100086004980399029A13
:1007C000019BFFF7DBFC0498C06A38B1FFE704988F
:1007D0000168086840F00E0008600CE004980168A9
:1007E000086820F00400086004980168086840F078
:1007F0000A000860FFE704980168086840F00100FB
:10080000086009E0FFE70499002081F82000FFE775
:1008100002208DF80300FFE79DF803008DF8170014
:10082000FFE79DF8170006B080BD000080B584B0DA
:10083000039000F00FFA02900398019001980130A4
:1008400048B1FFE740F26C00C2F200000178019865
:1008500008440190FFE7FFE700F0FCF90299401A15
:100860000199884201D2FFE7F6E704B080BD00009D
:1008700080B582B0ADF80600BDF8060001280AD1A7
:10088000FFE7062000F07AFA40F2AC01C2F2000164
:1008900001200870FFE702B080BD000080B582B083
:1008A000ADF8060040F21440C4F201000068BDF843
:1008B000061008420CD0FFE7BDF8060040F21441D4
:1008C000C4F201010860BDF80600FFF7D1FFFFE7A1
:1008D00002B080BD90B00F900E9100200D90099055
:1008E000FFE70E9800680D99C840002800F07F814E
:1008F000FFE70D99012088400C900E9800680C9934
:1009000008400B900B980C99884240F06C81FFE7EF
:100910000E9840680590002851D0FFE705980128FF
:100920003AD0FFE7059802283FD0FFE70598032853
:100930005FD0FFE70598112832D0FFE7059812280D
:1009400038D0FFE705980021C1F21101884236D066
:10095000FFE705980021C1F2120188422FD0FFE77E
:1009600005980021C1F22101884228D0FFE70598AF
:100970000021C1F22201884221D0FFE70598002121
:10098000C1F2310188421AD0FFE705980021C1F277
:100990003201884213D02FE00E98C06809902CE0F5
:1009A0000E98C0680430099027E00E98C06808309F
:1009B000099022E00E98C0680C3009901DE00E9856
:1009C000806818B9FFE70420099011E00E9880684C
:1009D000012806D1FFE7082009900C980F990861BB
:1009E00005E0082009900C980F994861FFE7FFE7A0
:1009F00003E00020099000E0FFE70B98FF2803D8F0
:100A0000FFE70F98049003E00F9804300490FFE78D
:100A1000049808900B98FF2804D8FFE70D988000F1
:100A2000039006E00D996FF01F0000EB810003902A
:100A3000FFE70398079008980068079A0F219140F4
:100A40008843099991400843089908600E98C07935
:100A5000C006002840F1C680FFE7FFE741F218001A
:100A6000C4F20200016841F001010160006800F079
:100A7000010006900698FFE70D9820F0030008217A
:100A8000C4F2010140580A900D9800F00300810063
:100A90000F2000FA01F10A9888430A900F9840F657
:100AA0000001C4F20101884203D1FFE70020029057
:100AB00026E00F9840F60041C4F20101884203D1BC
:100AC000FFE70120019018E00F9841F20001C4F205
:100AD0000101884203D1FFE7022000900AE00F994C
:100AE00041F20042C4F201020420914208BF0320F7
:100AF0000090FFE700980190FFE701980290FFE760
:100B000002980D9901F00301890000FA01F10A9899
:100B100008430A900A980D9921F003010822C4F2B3
:100B2000010288500E988079C006002809D5FFE799
:100B30000B9A40F20841C4F20101086810430860B2
:100B400008E00B9A40F20841C4F2010108689043A2
:100B50000860FFE70E9880798006002809D5FFE736
:100B60000B9A40F20C41C4F201010868104308607E
:100B700008E00B9A40F20C41C4F20101086890436E
:100B80000860FFE70E9880798007002809D5FFE705
:100B90000B9A40F20441C4F2010108681043086056
:100BA00008E00B9A40F20441C4F201010868904346
:100BB0000860FFE70E988079C00748B1FFE70B9AFD
:100BC00040F20041C4F2010108681043086008E0E7
:100BD0000B9A40F20041C4F201010868904308609A
:100BE000FFE7FFE7FFE70D9801300D9079E610B0C1
:100BF0007047000082B00190ADF802100198806843
:100C0000BDF80210084204D0FFE701208DF8010072
:100C100003E000208DF80100FFE79DF8010002B01D
:100C20007047000082B00190ADF802108DF80120ED
:100C30009DF8010028B1FFE7BDF8020001990861A5
:100C400005E0BDF80200000401990861FFE702B069
:100C50007047000040F2E010C2F2000000687047E8
:100C600040F26C00C2F20000027840F2E011C2F2E1
:100C700000010868104408607047000080B582B029
:100C800042F20001C4F20201086840F0100008605E
:100C9000032000F0A1F80020019000F005F800F01A
:100CA0003BF8019802B080BD80B582B0009040F260
:100CB0006800C2F20000006840F26C01C2F200015C
:100CC0000A784FF47A71B1FBF2F1B0FBF1F000F069
:100CD0007DFD20B1FFE701208DF8070018E00098A6
:100CE0000F280DD8FFE700994FF0FF30002200F0E9
:100CF00059F8009840F27001C2F20001086003E068
:100D000001208DF8070003E000208DF80700FFE7C1
:100D10009DF8070002B080BD83B0FFE741F21800E4
:100D2000C4F20200016841F001010160006800F0B6
:100D3000010002900298FFE7FFE741F21C00C4F2B5
:100D40000200016841F080510160006800F08050AD
:100D500001900198FFE7FFE70421C4F20101086850
:100D60000090009820F0E0600090009840F0007043
:100D7000009000980860FFE703B0704780B582B02C
:100D80008DF807009DF9070001F0D6FE02B080BD86
:100D900080B582B08DF807009DF9070001F0E8FEEC
:100DA00002B080BD80B586B08DF817000491039223
:100DB0000020029001F0F4FE02909DF917000190CE
:100DC00002980499039A01F03DFA0146019801F056
:100DD000EFFE06B080BD000080B582B001900198A2
:100DE00001F008FF02B080BD80B584B0029001918F
:100DF000029820B9FFE701208DF80F001BE1019850
:100E000042F20001C4F20201096801F007018842C0
:100E100016D9FFE742F20000C4F20200016821F097
:100E20000701019A11430160006800F00700019971
:100E3000884204D0FFE701208DF80F00FBE0FFE7B8
:100E400002980078800700282AD5FFE702980078EA
:100E50004007002809D5FFE741F20401C4F202016E
:100E6000086840F4E0600860FFE702980078000737
:100E7000002809D5FFE741F20401C4F20201086825
:100E800040F460500860FFE741F20401C4F202013F
:100E9000086820F0F000029A926810430860FFE7AB
:100EA00002980078C007002860D0FFE702984068E9
:100EB00001280ED1FFE741F20000C4F202000068F1
:100EC0008003002804D4FFE701208DF80F00B2E072
:100ED00021E00298406802280ED1FFE741F20000AD
:100EE000C4F2020000688001002804D4FFE701205A
:100EF0008DF80F009FE00DE041F20000C4F2020007
:100F000000688007002804D4FFE701208DF80F0057
:100F100091E0FFE7FFE741F20401C4F20201086833
:100F200020F00300029A526810430860FFF792FE17
:100F30000090FFE741F20400C4F20200006800F0F4
:100F40000C0002994968B0EB810F0ED0FFE7FFF764
:100F500081FE0099401A41F28931884204D3FFE7AB
:100F600003208DF80F0066E0E4E7FFE7019842F206
:100F70000001C4F20201096801F00701884216D29B
:100F8000FFE742F20000C4F20200016821F007010D
:100F9000019A11430160006800F00700019988423E
:100FA00004D0FFE701208DF80F0044E0FFE702982E
:100FB0000078400700280CD5FFE741F20401C4F295
:100FC0000201086820F4E060029AD26810430860C9
:100FD000FFE702980078000700280DD5FFE741F2EF
:100FE0000401C4F20201086820F46050029A1269F8
:100FF00040EAC2000860FFE700F04CF841F204014B
:10100000C4F202010968C9B20A0942F69241C0F667
:101010000001895CC84040F26801C2F2000108602A
:1010200040F27000C2F200000068FFF73DFE0020B1
:101030008DF80F00FFE79DF80F0004B080BD0000A1
:1010400040F26800C2F200000068704780B5FFF708
:10105000F7FF41F20401C4F202010968C1F3022260
:1010600042F6A241C0F60001895CC84080BD000084
:1010700080B5FFF7E5FF41F20401C4F202010968FF
:10108000C1F3C22242F6A241C0F60001895CC84009
:1010900080BD000086B0002005900490039002906F
:1010A000019041F20400C4F2020000680590059826
:1010B00000F00C000146009100283FD0FFE70098A7
:1010C000042804D0FFE70098082806D037E041F252
:1010D0000020C0F27A00019037E00598C0F3834108
:1010E00042F6AA40C0F60000405C02909DF816004F
:1010F000C007C0B1FFE741F20400C4F2020000687B
:10110000C0F3404142F6BA40C0F60000405C049093
:10111000029841F20021C0F27A0148430499B0FBE1
:10112000F1F0039007E0029840F60011C0F23D0193
:1011300048430390FFE70398019006E0FFE741F280
:101140000020C0F27A000190FFE7019806B07047D6
:1011500080B586B00490049820B9FFE701208DF88F
:1011600017002EE304980078C007002800F0AE8036
:10117000FFE741F20400C4F20200006800F00C0036
:10118000042813D0FFE741F20400C4F20200006813
:1011900000F00C0008281BD1FFE741F20400C4F264
:1011A00002000068C003002812D5FFE741F20000EA
:1011B000C4F2020000688003002808D5FFE7049805
:1011C000406820B9FFE701208DF81700F9E27CE0C4
:1011D000FFE704984068B0F5803F09D1FFE741F28E
:1011E0000001C4F20201086840F48030086032E077
:1011F0000498406868B9FFE741F20001C4F20201B7
:10120000086820F480300860086820F480200860B6
:1012100020E004984068B0F5A02F0DD1FFE741F21F
:101220000001C4F20201086840F4802008600868E8
:1012300040F4803008600CE041F20001C4F2020189
:10124000086820F480300860086820F48020086076
:10125000FFE7FFE7FFE7FFE704984068D0B1FFE74B
:10126000FFF7F8FC0390FFE741F20000C4F2020030
:101270000068800300280CD4FFE7FFF7EBFC03991C
:10128000401A652804D3FFE703208DF8170098E281
:10129000EAE719E0FFF7DEFC0390FFE741F2000008
:1012A000C4F202000068800300280CD5FFE7FFF7B6
:1012B000D1FC0399401A652804D3FFE703208DF879
:1012C00017007EE2EAE7FFE7FFE7FFE70498007810
:1012D0008007002840F18D80FFE741F20400C4F24E
:1012E0000200006810F00C0F13D0FFE741F2040079
:1012F000C4F20200006800F00C00082829D1FFE7C2
:1013000041F20400C4F202000068C003002820D4A7
:10131000FFE741F20000C4F20200006880070028E5
:1013200009D5FFE704980069012804D0FFE70120F0
:101330008DF8170045E241F20001C4F2020108688D
:1013400020F0F800049A526940EAC2000860FFE702
:101350004EE00498006958B3FFE70021C4F242212F
:1013600001200860FFF776FC0390FFE741F20000E0
:10137000C4F202000068800700280CD4FFE7FFF7E2
:1013800069FC0399401A032804D3FFE703208DF872
:10139000170016E2EAE741F20001C4F20201086810
:1013A00020F0F800049A526940EAC20008601EE08A
:1013B0000021C4F2422100200860FFF74BFC03909B
:1013C000FFE741F20000C4F2020000688007002835
:1013D0000CD5FFE7FFF73EFC0399401A032804D31E
:1013E000FFE703208DF81700EBE1EAE7FFE7FFE7EF
:1013F000FFE7049800780007002848D5FFE7049825
:10140000806918B3FFE740F28041C4F24221012015
:101410000860FFF71FFC0390FFE741F22400C4F2CD
:1014200002000068800700280CD4FFE7FFF712FCD9
:101430000399401A032804D3FFE703208DF817000F
:10144000BFE1EAE7012000F035FF1FE040F28041F4
:10145000C4F2422100200860FFF7FCFB0390FFE785
:1014600041F22400C4F202000068800700280CD575
:10147000FFE7FFF7EFFB0399401A032804D3FFE7C8
:1014800003208DF817009CE1EAE7FFE7FFE70498E7
:1014900000784007002840F1D880FFE700208DF851
:1014A000070041F21C00C4F202000068C0000028DE
:1014B00013D4FFE7FFE741F21C00C4F20200016809
:1014C00041F080510160006800F080500090009869
:1014D000FFE701208DF80700FFE747F20000C4F2A4
:1014E00000000068C005002822D4FFE747F2000191
:1014F000C4F20001086840F480700860FFF7AAFB9E
:101500000390FFE747F20000C4F200000068C00546
:1015100000280CD4FFE7FFF79DFB0399401A6528CC
:1015200004D3FFE703208DF817004AE1EAE7FFE75D
:10153000FFE70498C068012809D1FFE741F22001C4
:10154000C4F20201086840F00100086031E004982C
:10155000C06868B9FFE741F22001C4F202010868DF
:1015600020F001000860086820F0040008601FE017
:101570000498C06805280DD1FFE741F22001C4F2AC
:101580000201086840F004000860086840F00100AB
:1015900008600CE041F22001C4F20201086820F06A
:1015A00001000860086820F004000860FFE7FFE71A
:1015B000FFE7FFE70498C068E0B1FFE7FFF74AFBE9
:1015C0000390FFE741F22000C4F2020000688007A8
:1015D00000280ED4FFE7FFF73DFB0399401A41F2C4
:1015E0008931884204D3FFE703208DF81700E8E033
:1015F000E8E71BE0FFF72EFB0390FFE741F2200036
:10160000C4F202000068800700280ED5FFE7FFF74C
:1016100021FB0399401A41F28931884204D3FFE744
:1016200003208DF81700CCE0E8E7FFE79DF80700FE
:10163000012809D1FFE741F21C01C4F20201086848
:1016400020F080500860FFE7FFE70498C069002899
:1016500000F0B380FFE741F20400C4F2020000682A
:1016600000F00C00082800F08280FFE70498C069B1
:1016700002285CD1FFE76021C4F24221002008600B
:10168000FFF7E8FA0390FFE741F20000C4F202001E
:101690000068800100280CD5FFE7FFF7DBFA03990B
:1016A000401A032804D3FFE703208DF8170088E0D1
:1016B000EAE70498006AB0F5803F0CD1FFE741F2F9
:1016C0000401C4F20201086820F40030049A926810
:1016D00010430860FFE741F20401C4F20201086808
:1016E00020F47410049B1A6A5B6A1A431043086062
:1016F0006021C4F2422101200860FFF7ABFA039099
:10170000FFE741F20000C4F20200006880010028F7
:101710000CD4FFE7FFF79EFA0399401A032804D37D
:10172000FFE703208DF817004BE0EAE71EE0602199
:10173000C4F2422100200860FFF78CFA0390FFE713
:1017400041F20000C4F202000068800100280CD5BC
:10175000FFE7FFF77FFA0399401A032804D3FFE756
:1017600003208DF817002CE0EAE7FFE724E0049857
:10177000C069012804D1FFE701208DF8170020E09F
:1017800041F20400C4F2020000680290029800F4E2
:1017900080300499096A884208D1FFE7029800F472
:1017A00070100499496A884204D0FFE701208DF83F
:1017B000170006E0FFE7FFE7FFE700208DF81700BE
:1017C000FFE79DF8170006B080BD000080B582B02D
:1017D0000190019800F08EFD02B080BD80B586B00A
:1017E00004900391ADF80A20049890F84200202854
:1017F0004DD1FFE7039820B1FFE7BDF80A0020B9FB
:10180000FFE701208DF8170045E0049901200863E7
:1018100004990020486304980399BDF80A2001F058
:101820003FF88DF809009DF8090058BBFFE70498C0
:10183000006B012821D1FFE7FFE700200190049809
:101840000068006801900498006840680190019861
:10185000FFE7FFE7FFE70498006850E8030F40F058
:1018600010000090FFE700990498026842E8031016
:101870000028F0D1FFE7FFE703E001208DF8090021
:10188000FFE7FFE79DF809008DF8170003E002204D
:101890008DF81700FFE79DF8170006B080BD000027
:1018A00082B00190ADF802100198006844F2004146
:1018B000C4F2000188420ED1FFE740F2AB01C2F250
:1018C0000001012008709DF8020040F2AA01C2F256
:1018D00000010870FFE702B07047000081B000907F
:1018E00001B0704780B592B01190119800680068FF
:1018F000109011980068C0680F90119800684069B6
:101900000E9000200D900C90109800F00F000D909C
:101910000D9888B9FFE79DF84000800600280AD599
:10192000FFE79DF83C008006002804D5FFE71198EA
:1019300000F0A2FEE9E1FFE70D98002800F0C28068
:10194000FFE79DF83800C00738B9FFE7BDF83C0055
:1019500010F4907F00F0B680FFE79DF84000C007CC
:1019600058B1FFE79DF83D00C00730B1FFE711997E
:10197000486C40F001004864FFE79DF840004007D4
:1019800000280BD5FFE79DF83800C00730B1FFE70E
:101990001199486C40F002004864FFE79DF8400050
:1019A000800700280BD5FFE79DF83800C00730B14D
:1019B000FFE71199486C40F004004864FFE79DF888
:1019C00040000007002811D5FFE79DF83C00800685
:1019D000002805D4FFE79DF83800C00730B1FFE7C5
:1019E0001199486C40F008004864FFE71198406C7A
:1019F000002866D0FFE79DF84000800600280AD541
:101A0000FFE79DF83C008006002804D5FFE7119809
:101A100000F032FEFFE7119800684069C0F38010C3
:101A20000C901198406C0007002804D4FFE70C9834
:101A300000283ED0FFE7119800F0A4FD119800683F
:101A40004069400600282FD5FFE7FFE7FFE7119820
:101A5000006850E8050F20F040000B90FFE70B995D
:101A60001198026842E805100028F0D1FFE7FFE76F
:101A70001198C06B98B1FFE71198C16B42F2C13069
:101A8000C0F6000048631198C06BFEF783FD28B1D3
:101A9000FFE71198C06B416B8847FFE703E011989F
:101AA000FFF71CFFFFE703E01198FFF717FFFFE7C1
:101AB00006E01198FFF712FF119900204864FFE734
:101AC000FFE722E11198006B012840F0FE80FFE75C
:101AD0009DF84000C006002840F1F780FFE79DF820
:101AE0003C00C006002840F1F080FFE7FFE700203F
:101AF0000A901198006800680A9011980068406880
:101B00000A900A98FFE7119800684069400600288B
:101B100040F18180FFE71198C06B00684068ADF824
:101B20002600BDF82600002874D0FFE7BDF8260087
:101B30001199898D88426DDAFFE7BDF82600119969
:101B4000C8851198C06B8069202858D0FFE7FFE74F
:101B5000FFE71198006850E8030F20F480700890A8
:101B6000FFE708991198026842E803100028F0D1B5
:101B7000FFE7FFE7FFE7FFE71198006850E8050F70
:101B800020F001000790FFE707991198026842E8EA
:101B900005100028F0D1FFE7FFE7FFE7FFE7119806
:101BA000006850E8050F20F040000690FFE7069916
:101BB0001198026842E805100028F0D1FFE7FFE71E
:101BC0001199202081F84200119900200863FFE755
:101BD000FFE71198006850E8030F20F0100005900F
:101BE000FFE705991198026842E803100028F0D138
:101BF000FFE7FFE71198C06BFEF78EFCFFE7119936
:101C0000022048631198818DC28D891A89B2FFF72D
:101C100047FEFFE779E01199888DC98D401AADF82C
:101C200012001198C08D00284ED0FFE7BDF81200B9
:101C3000002849D0FFE7FFE7FFE71198006850E868
:101C4000030F20F490700390FFE703991198026846
:101C500042E803100028F0D1FFE7FFE7FFE7FFE7C6
:101C60001198006850E8050F20F001000290FFE78E
:101C700002991198026842E805100028F0D1FFE7A8
:101C8000FFE71199202081F8420011990020086394
:101C9000FFE7FFE71198006850E8030F20F01000FD
:101CA0000190FFE701991198026842E803100028AB
:101CB000F0D1FFE7FFE71199022048631198BDF8C2
:101CC0001210FFF7EDFDFFE71FE09DF84000000652
:101CD00000280AD5FFE79DF83C000006002804D53F
:101CE000FFE7119800F062FE0FE09DF8400040060B
:101CF00000280AD5FFE79DF83C004006002804D5DF
:101D0000FFE7119800F088FCFFE712B080BD0000EB
:101D100080B582B00090009820B9FFE701208DF8CF
:101D2000070040E00098806908B1FFE700E0FFE7A6
:101D3000009890F8410040B9FFE70099002081F831
:101D40004000009800F034F8FFE70099242081F863
:101D5000410000980168C86820F40050C8600098ED
:101D600000F040FD00980168086920F49040086187
:101D700000980168486920F02A00486100980168CD
:101D8000C86840F40050C860009900204864009A78
:101D9000202182F84110009A82F84210009948638D
:101DA0008DF80700FFE79DF8070002B080BD000036
:101DB00080B594B0139000201290119010900F9065
:101DC0001398006843F60001C4F20101884268D10B
:101DD000FFE7FFE741F21800C4F20200016841F496
:101DE00080410160006800F480400E900E98FFE78B
:101DF000FFE741F21800C4F20200016841F004015B
:101E00000160006800F004000D900D98FFE74FF4AA
:101E100000700F90022010900320129040F60000F6
:101E2000C4F2010007900FA90891FEF753FD07982F
:101E300008994FF480620F92002209921092119239
:101E4000FEF748FD099940F2B000C2F200000A9086
:101E50005822C4F202020260416081608022C260A6
:101E60000161416181614FF40051C161FEF720FCC5
:101E700018B1FFE7FEF7B2F9FFE7FFE7139840F26A
:101E8000B001C2F20001C16313984862FFE7252048
:101E9000069000221146FEF785FF0698FEF778FFB0
:101EA0006FE01398006844F20041C4F200018842D8
:101EB00066D1FFE7FFE741F21C00C4F202000168AF
:101EC00041F400310160006800F400300C900C987F
:101ED000FFE7FFE741F21800C4F20200016841F099
:101EE00004010160006800F004000B900B98FFE70C
:101EF00004200F90022010900320129040F6000062
:101F0000C4F2010002900FA90391FEF7E3FC0298CE
:101F1000039908220F920022049210921192FEF768
:101F2000D9FC049940F2F400C2F2000005906C2242
:101F3000C4F202020260416081608022C2600161DD
:101F4000416181614FF40051C161FEF7B1FB18B1ED
:101F5000FFE7FEF743F9FFE7FFE7139840F2F401CC
:101F6000C2F20001C16313984862FFE72620019086
:101F700000221146FEF716FF0198FEF709FFFFE762
:101F8000FFE714B080BD000081B0009001B0704741
:101F900081B0009001B0704780B58AB00890079179
:101FA000ADF81A20059300200290089890F841009F
:101FB000202878D1FFE7079820B1FFE7BDF81A0085
:101FC00020B9FFE701208DF8270070E00899002074
:101FD00048640899212081F84100FEF73BFE0290F9
:101FE000BDF81A0008998884BDF81A000899C884B9
:101FF00008988068B0F5805F09D1FFE7089800690C
:1020000028B9FFE7002004900798039004E00798A0
:10201000049000200390FFE7FFE70898C08C58B3B6
:10202000FFE70898029B05996A461160802100220B
:1020300000F006FD20B1FFE703208DF8270036E011
:10204000049858B9FFE7039800886FF35F20089958
:102050000968486003980230039008E0049800780B
:10206000089909684860049801300490FFE70899CE
:10207000C88C0138C884D0E70898029B05996A4645
:1020800011604021002200F0DBFC20B1FFE70320BB
:102090008DF827000BE00899202081F841000020EE
:1020A0008DF8270003E002208DF82700FFE79DF858
:1020B00027000AB080BD000081B0009001B07047D9
:1020C000FFE7FEE781B0FFE741F21400C4F202002F
:1020D000016841F001010160006800F0010000901A
:1020E0000098FFE701B0704780B58EB000200D90DA
:1020F0000C900B900A90FFE741F21800C4F2020026
:10210000016841F020010160006800F020000990A2
:102110000998FFE7FFE741F21800C4F202000168E6
:1021200041F004010160006800F004000890089884
:10213000FFE7FFE741F21800C4F20200016841F036
:1021400008010160006800F0080007900798FFE7A9
:1021500040F60040C4F2010003904FF40071019179
:1021600001220292FEF75EFD02980A900020C1F261
:1021700011000B90002005900C9040F60000C4F276
:1021800001000AA90491FEF7A5FBDDF804C0029B3B
:1021900003980499059ACDF828C00B930C9203225A
:1021A0000D92FEF797FB059A062006901146FEF762
:1021B000F9FD0698FEF7ECFD0EB080BD80B582B04B
:1021C00040F25010C2F20000019043F60001C4F248
:1021D000010101604FF4E131416000218160C16083
:1021E00001610C2242618161C161FFF791FD18B16B
:1021F000FFE7FDF7F3FFFFE702B080BD80B582B0D7
:1022000040F29810C2F20000019044F20041C4F282
:10221000000101604FF46141416000218160C160B3
:1022200001610C2242618161C161FFF771FD18B14A
:10223000FFE7FDF7D3FFFFE702B080BDFFE7FEE752
:10224000FFE7FEE788B0079006910592079800F037
:10225000070004900498C0F10700052803D3FFE7A6
:102260000420019004E00498C0F107000190FFE70A
:102270000198039004980430062803D8FFE7002053
:10228000009003E0049803380090FFE70098029064
:1022900006980399012202FA01F101390840029BD4
:1022A000984005999A40013A1140084308B0704798
:1022B0007047000082B00190019840F26801C2F2BC
:1022C00000010968C90844F6D352C1F26202A1FBB9
:1022D0000221890948430090FFE700BFFFE700980B
:1022E000411E00910028F8D1FFE702B070470000BE
:1022F0007047000080B582B0009000980138B0F1BE
:10230000807F03D3FFE70120019019E00098013896
:102310004EF21401CEF2000108604FF0FF300F21A1
:1023200000F046FC4EF21801CEF2000100200860D9
:102330004EF21002CEF20002072111600190FFE779
:10234000019802B080BD000080B5FEF789FC80BD19
:1023500080B590B006A800902821FDF7EAFE00980D
:1023600000230593049303930293019301220692A1
:102370004FF48031079108930A9202220D920E9138
:102380004FF4E0110F91FEF7E3FE18B1FFE7FDF700
:1023900025FFFFE70F20019002210291002003900A
:1023A0004FF480620492059001A8FEF71DFD18B15C
:1023B000FFE7FDF713FFFFE710B080BD7047000097
:1023C00080B582B001900198406A00900099002089
:1023D000C8850099C8840098FFF780FA02B080BDD4
:1023E00080B584B00390002002900398406A019069
:1023F000019800684069C0B2C0090290019890F845
:10240000410021280AD1FFE7029838B1FFE701997E
:102410000020C884019800F013F9FFE701980068D4
:102420004069C0F380100290019890F84200222881
:102430000AD1FFE7029838B1FFE701990020C8856B
:10244000019800F09FF8FFE70199486C40F01000F8
:1024500048640198FFF742FA04B080BD80B586B0A9
:1024600005900598406A0490059800680068800609
:1024700000285AD4FFE704990020C885FFE7FFE74A
:102480000498006850E8030F20F480700390FFE781
:1024900003990498026842E803100028F0D1FFE78E
:1024A000FFE7FFE7FFE70498006850E8050F20F01A
:1024B00001000290FFE702990498026842E80510C3
:1024C0000028F0D1FFE7FFE7FFE7FFE70498006887
:1024D00050E8050F20F040000190FFE701990498B3
:1024E000026842E805100028F0D1FFE7FFE70499F1
:1024F000202081F842000498006B012814D1FFE7E6
:10250000FFE7FFE70498006850E8030F20F0100091
:102510000090FFE700990498026842E80310002841
:10252000F0D1FFE7FFE7FFE7FFE7049900204863EA
:102530000498006B012805D1FFE70498818DFFF70F
:10254000AFF903E00498FFF71FFDFFE706B080BD79
:1025500080B582B001900198406A009000990120F6
:1025600048630098006B012806D1FFE70098818D31
:102570004908FFF795F903E00098FFF709FDFFE729
:1025800002B080BD84B00390FFE7FFE703980068C6
:1025900050E8030F20F490700290FFE7029903982F
:1025A000026842E803100028F0D1FFE7FFE7FFE7E9
:1025B000FFE70398006850E8050F20F00100019044
:1025C000FFE701990398026842E805100028F0D15E
:1025D000FFE7FFE70398006B012814D1FFE7FFE74F
:1025E000FFE70398006850E8030F20F01000009008
:1025F000FFE700990398026842E803100028F0D131
:10260000FFE7FFE7FFE70399202081F842000399E5
:102610000020086304B0704780B582B00190019833
:102620000168C86820F04000C8600199202081F846
:1026300041000198FFF740FD002002B080BD00007E
:1026400082B00190FFE7FFE70198006850E8030FB0
:1026500020F0C0000090FFE700990198026842E86E
:1026600003100028F0D1FFE7FFE70199202081F84F
:10267000410002B07047000080B586B00490049815
:1026800090F84200222840F0A480FFE70498806878
:10269000B0F5805F15D1FFE70498006988B9FFE7BE
:1026A000002003900498806A0290049800684068B3
:1026B0006FF35F20029908800499886A023088626B
:1026C00025E00498806A03900020029004988068B6
:1026D000B0F5805F08D0FFE70498806850B9FFE745
:1026E0000498006930B9FFE70498006840680399CE
:1026F000087007E004980068406800F07F000399C4
:102700000870FFE70499886A01308862FFE704993E
:10271000C88D0138C8850004002856D1FFE7049809
:102720000168C86820F02000C86004980168C86883
:1027300020F48070C86004980168486920F00100A6
:1027400048610499202081F84200049900204863E0
:102750000498006B012830D1FFE70499002008633A
:10276000FFE7FFE70498006850E8030F20F010002F
:102770000190FFE701990498026842E803100028DD
:10278000F0D1FFE7FFE7049800680068C006002862
:102790000ED5FFE7FFE7002000900498006800686E
:1027A000009004980068406800900098FFE7FFE7F9
:1027B0000498818DFFF774F803E00498FFF7E4FBB9
:1027C000FFE700208DF8170007E000208DF81700C4
:1027D00003E002208DF81700FFE79DF8170006B010
:1027E00080BD000080B584B0039003980068006944
:1027F00020F44050039A1168D2681043086103998D
:1028000088680A6949691043084302900398006880
:10281000C06841F20C618843029908430399096832
:10282000C86003980068406920F44070039A1168FA
:102830009269104348610398006843F60001C4F2AE
:102840000101884204D1FFE7FEF712FC019003E08A
:10285000FEF7FCFB0190FFE7019819214843039A1A
:10286000116852689200B0FBF2FC48F21F52C5F2A8
:10287000EB12ACFB02304309642003FB10CC322086
:1028800000EB0C10A0FB0202F02000EA521000EB5B
:102890000310C2F343121044886004B080BD0000EE
:1028A00080B588B007900691ADF816200698079974
:1028B0008862BDF81600079988850799002048644A
:1028C000079A222182F842100799CA6B42F25D41B1
:1028D000C0F6000191620799CA6B42F25151C0F6ED
:1028E0000001D1620799CA6B42F2E131C0F60001E2
:1028F00011630799C96B486306A80490079801689B
:10290000C06B0431049A1268BDF81630FDF728FF39
:10291000FFE700200390079800680068039007987D
:102920000068406803900398FFE707980069A0B12A
:10293000FFE7FFE7FFE70798006850E8030F40F460
:1029400080700290FFE702990798026842E803103E
:102950000028F0D1FFE7FFE7FFE7FFE7FFE7079871
:10296000006850E8050F40F001000190FFE7019971
:102970000798026842E805100028F0D1FFE7FFE75A
:10298000FFE7FFE70798006850E8050F40F04000B8
:102990000090FFE700990798026842E805100028B8
:1029A000F0D1FFE7FFE7002008B080BD83B00190C1
:1029B000019890F8410021283AD1FFE701988068FA
:1029C000B0F5805F13D1FFE70198006978B9FFE7A0
:1029D0000198006A0090009800886FF35F200199C9
:1029E000096848600199086A0230086208E0019AA3
:1029F000106A411C11620078019909684860FFE77C
:102A00000199C88C0138C884000468B9FFE70198AF
:102A10000168C86820F08000C86001980168C86833
:102A200040F04000C860FFE700208DF80B0003E095
:102A300002208DF80B00FFE79DF80B0003B07047F4
:102A400080B588B0DDF828C0069005918DF8132078
:102A50000393FFE706980068006805990840401A4C
:102A6000B0FA80F040099DF81310884249D1FFE781
:102A70000A980130002843D0FFE70A9840B1FFE7E9
:102A8000FEF7E8F80399401A0A99884237D9FFE718
:102A9000FFE7FFE70698006850E8030F20F4D070C6
:102AA0000290FFE702990698026842E803100028A6
:102AB000F0D1FFE7FFE7FFE7FFE70698006850E87F
:102AC000050F20F001000190FFE7019906980268C8
:102AD00042E805100028F0D1FFE7FFE70699202023
:102AE00081F84100069981F84200FFE7069900202D
:102AF00081F84000FFE703208DF81F0005E0FFE7A5
:102B0000A8E700208DF81F00FFE79DF81F0008B020
:102B100080BD000080B540F25010C2F20000FEF708
:102B2000E1FE80BD80B540F29810C2F20000FEF7D1
:102B3000D9FE80BDFFE7FEE781B08DF803009DF967
:102B40000300002812D4FFE79DF9031001F01F02D3
:102B5000012090404A094EF28011CEF2000141F866
:102B60002200BFF34F8FBFF36F8FFFE701B07047B5
:102B700081B08DF803009DF9030000280ED4FFE713
:102B80009DF9031001F01F02012090404A094EF206
:102B90000011CEF2000141F82200FFE701B07047BA
:102BA0004EF60C50CEF200000068C0F302207047D1
:102BB00082B08DF8070000919DF9070000280AD423
:102BC000FFE7009800019DF907104EF20042CEF297
:102BD000000288540BE0009800019DF8071001F0F6
:102BE0000F014EF61452CEF200028854FFE702B0F5
:102BF0007047000083B00290029800F00700009038
:102C00004EF60C51CEF200010868019001984FF683
:102C1000FF02104001900198009A40EA0220002231
:102C2000C0F2FA52104301900198086003B0704757
:102C300080B582B000200190FEF720F8FFF788FBF6
:102C40004FF47A70FDF7F2FDFFF74EFAFFF73AFA0C
:102C5000FFF7B4FAFFF7D2FA40F23810C2F20000E0
:102C6000FDF75AFBFFE740F23810C2F20000FDF713
:102C70007FFBF8E702E008C8121F08C1002AFAD15A
:102C800070477047002001E001C1121F002AFBD1EC
:102C90007047000000000000000001020304060766
:102CA00008090000000001020304020304050607EE
:102CB00008090A0B0C0D0E0F10100102E02C000881
:102CC0000000002078000000742C0008582D000837
:102CD0007800002070050000842C0008000000002F
:102CE000EF01FFFFFFFF0100073C03010100004966
:102CF000EF01FFFFFFFF01000402010008EF01FFE9
:102D0000FFFFFF010003010005EF01FFFFFFFF01CF
:102D100000073C02020202004CEF01FFFFFFFF012F
:102D200000073C020404020050EF01FFFFFFFF0117
:102D3000000804010000FFFF020CEF01FFFFFFFF8E
:102D400001000333003700000024F40001000000FC
:082D500010000000000000006B
:04000005080000ED02
:00000001FF
