:020000040800F2
:100000006805002049010008BD060008B706000881
:10001000B906000891010008130E00080000000056
:10002000000000000000000000000000BF08000801
:10003000950100080000000045070008FD090008C0
:100040006301000863010008630100086301000800
:1000500063010008630100086301000863010008F0
:1000600063010008630100086301000863010008E0
:1000700063010008630100086301000863010008D0
:1000800063010008630100086301000863010008C0
:1000900063010008630100086301000863010008B0
:1000A00063010008630100086301000863010008A0
:1000B0006301000863010008630100086301000890
:1000C0006301000863010008630100086301000880
:1000D0006301000863010008610A0008C10A000802
:1000E000990100086301000863010008630100082A
:1000F0006301000863010008630100086301000850
:10010000630100086301000863010008630100083F
:10011000630100086301000863010008630100082F
:10012000630100086301000863010008630100081F
:10013000DFF810D000F01AF8004800477D0E0008E4
:10014000AFF3008068050020064880470648004756
:10015000FEE7FEE7FEE7FEE7FEE7FEE7FEE7FEE777
:10016000FEE7FEE7010A000831010008064C074DD2
:1001700006E0E06840F0010394E807009847103477
:10018000AC42F6D3FFF7D8FFA00E0008C00E00085F
:1001900000BFFEE77047000010B54FF4005000F0BC
:1001A00023F880B14FF4005000F018F8282000F038
:1001B0001F0201219140044A430942F8231000BF65
:1001C00001200249087010BD80E100E0030000201A
:1001D00001490860704700001404014001490860AB
:1001E0007047000014040140014600200022074B24
:1001F0001B6803EA0102054B14331B680B4013B163
:100200000AB1012000E00020704700000004014016
:10021000002123498279002A3AD00A4612680368ED
:100220009A430B461A600A1D126803689A430B1D15
:100230001A60027911440A6803681A430A60184A6E
:100240000832126803689A43154B08331A601A1D66
:10025000126803689A43124B0C331A604279102AD1
:100260000ED11A1F126803681A430D4B08331A6027
:100270001A1D126803681A43094B0C331A600DE00B
:100280000749427911440A6803681A430A6005E085
:10029000027911440A6803689A430A6070470000B3
:1002A0000004014070B502460023A1F10800C4B269
:1002B000951D002004E02E5C1E44B3B2461CF0B233
:1002C000A042F8DB184670BD70B504460D464FF4E9
:1002D000FA6310222946204600F0D0F870BD0000D5
:1002E00010B504464FF4FA630D220249204600F08F
:1002F000C5F810BD7D00002010B504464FF4FA6328
:100300000C220249204600F0B9F810BD710000200F
:1003100070B504462046FFF7EFFFB0B92046FFF75F
:10032000DFFF90B9204600F06FF870B9A068C07A7E
:10033000A168897A00EB012085B200F095F80649A2
:100340002046FFF7C1FF284670BD04492046FFF74D
:10035000BBFFFF20F8E70000500000204000002015
:1003600010B504460748E06007486061074820610F
:1003700007486060074820600748A060204600F0FA
:1003800067F810BD350E00082104000805040008B8
:1003900002000020010000202001002010B50446CA
:1003A0001548007830B300201349087013492046DF
:1003B000FFF78AFF2046FFF7ABFF05E06420E16806
:1003C0008847204600F044F801210D4800F06AF902
:1003D0000028F3D12820FFF7FBFE282000F01F02A1
:1003E000012191404209920002F1E022C2F800117D
:1003F00000BF00BF10BD000003000020300000203F
:10040000000801407047000010B504464FF4FA633D
:1004100011220249204600F031F810BD970000205B
:1004200070B504460D4600260DE000BF8021074848
:1004300000F01DFC0028F9D114F8011B034800F05E
:10044000E4FC701C86B2AE42EFDB70BD004400409D
:1004500010B504464FF4FA630C220249204600F01E
:100460000DF810BD0C0000200348006880F40070F7
:1004700001490860704700000C0C0140F8B50446C3
:100480000E4617461D4600200090394630466269E8
:1004900090472169A06888470AE00120E168884701
:1004A0002068007818B100202168087002E06D1EF5
:1004B000002DF2D100BF62681178A068FFF7F2FE4C
:1004C000ADF80000D4E901010078401E095CD4E9D0
:1004D00001020078801E105C01EB002080B2ADF8B4
:1004E0000200BDF80000BDF80210884202D1A068E9
:1004F000407AF8BD0120FCE730B500228B071C0FC5
:100500000F2303FA04F20B4B8C1053F8243093435F
:10051000084C8D1044F8253023468C1053F82430B5
:100520008C07240F00FA04F42343024C8D1044F886
:10053000253030BD080001402DE9F041024600257C
:100540000026002000230024002791F803C00CF0AF
:100550000F0591F803C00CF0100CBCF1000F03D094
:1005600091F802C04CEA050591F800C0BCF1000FFB
:1005700031D0146800202BE04FF0010C0CFA00F38E
:10058000B1F800C00CEA03069E4220D183004FF070
:100590000F0C0CFA03F7BC4305FA03FC4CEA040405
:1005A00091F803C0BCF1280F06D14FF0010C0CFAF2
:1005B00000FCC2F814C00AE091F803C0BCF1480F77
:1005C00005D14FF0010C0CFA00FCC2F810C0401C21
:1005D0000828D1D31460B1F800C0BCF1FF0F34DD9E
:1005E000546800202EE000F1080C4FF0010808FAD2
:1005F0000CF3B1F800C00CEA03069E4221D183003F
:100600004FF00F0C0CFA03F7BC4305FA03FC4CEA5D
:10061000040491F803C0BCF1280F05D100F1080CC7
:1006200008FA0CF8C2F8148091F803C0BCF1480F26
:1006300007D100F1080C4FF0010808FA0CF8C2F8D5
:100640001080401C0828CED35460BDE8F081000023
:100650000EB50121102000F087F80121084600F0B6
:1006600083F80D210220FFF747FF28208DF80B00AB
:100670004FF40050ADF8080002A90948FFF75CFFED
:100680004FF40050009000208DF8040008208DF8F1
:10069000050001208DF806006846FFF7B9FD0EBD84
:1006A000001001400246002093680B400BB101206E
:1006B00000E000207047704700BFFEE77047000071
:1006C00070B5002100230F22C47804B3154C2468B0
:1006D00004F4E064C4F5E064210AC1F10403CA40F3
:1006E000447804FA03F184781440214309010E4C44
:1006F0000678A155047804F01F050124AC40057864
:100700006D11AD0005F1E025C5F8004109E0047860
:1007100004F01F050124AC40044D0678761145F81D
:10072000264070BD0CED00E000E400E080E100E058
:1007300002490143024A1160704700000000FA05B7
:100740000CED00E07047000029B1064AD26902436F
:10075000044BDA6104E0034AD2698243014BDA6157
:10076000704700000010024029B1064A9269024316
:10077000044B9A6104E0034A92698243014B9A61F7
:10078000704700000010024030B500210022002414
:1007900000232D4D6D6805F00C0121B1042905D011
:1007A000082923D105E0294D056022E0274D056089
:1007B0001FE0254D6D6805F47012234D6D6805F43A
:1007C0008034022505EB92421CB9214D554305604A
:1007D0000BE01D4D6D6805F400351DB11C4D5543F2
:1007E000056002E0194D5543056002E0174D0560B4
:1007F00000BF00BF144D6D6805F0F0010909154DEB
:100800006B5C0568DD4045600F4D6D6805F4E06187
:10081000090A104D6B5C4568DD4085600A4D6D68C6
:1008200005F46051C90A0B4D6B5C4568DD40C5603D
:10083000054D6D6805F44041890B074D6B5CC5683B
:10084000B5FBF3F5056130BD0010024000127A00DF
:1008500000093D00DD000020ED00002008B54FF448
:10086000A060FFF765FF28208DF8000001208DF8BB
:1008700003008DF8010000208DF802006846FFF7A4
:100880001FFF27208DF8000001208DF803000220B3
:100890008DF8010000208DF802006846FFF710FF78
:1008A00026208DF8000001208DF8030000208DF82F
:1008B00001008DF802006846FFF702FF08BD70478F
:1008C00010B500F001F810BD0CB5002001900090AB
:1008D0003348006840F480303149086000BF304838
:1008E000006800F4003000900198401C01900098CE
:1008F00018B90198B0F5A06FF1D12948006800F44B
:10090000003010B10120009001E00020009000981C
:10091000012843D12348006840F0100021490860B5
:100920000846006820F0030008600846006840F0B0
:10093000020008601A484068194948600846406843
:1009400048600846406840F4806048600846406857
:1009500020F47C1048600846406840F4E810486085
:100960000846006840F08070086000BF0C480068CE
:1009700000F000700028F9D00948406820F003001A
:10098000074948600846406840F00200486000BFE0
:100990000348406800F00C000828F9D10CBD0000A5
:1009A000001002400020024030B50146B1F1807FC6
:1009B00001D3012030BD21F07F40401E4FF0E022E6
:1009C000506150170F22002807DA13071D0E094B3C
:1009D00000F00F04241F1D5503E013071C0E064BE7
:1009E0001C5400BF00204FF0E022906107201061EE
:1009F0000020DFE718ED00E000E400E070470000B1
:100A000010B51348006840F001001149086008461D
:100A10004068104908400E494860084600680E4981
:100A200008400B4908600846006820F480200860F0
:100A30000846406820F4FE0048604FF41F008860BC
:100A4000FFF73EFF4FF000600449086010BD000052
:100A5000001002400000FFF8FFFFF6FE08ED00E086
:100A600010B540F22551134800F00EF9D8B11148E5
:100A700000F0C6F9C4B21048007800F0800090B9C8
:100A80000D480078142808DA0B4801780078401CDB
:100A9000094A10700948445405E00748007840F0BE
:100AA00080000549087040F22551024800F0C4F862
:100AB00010BD00000044004004000020520100204E
:100AC00010B540F22551134800F0DEF8E0B11148AE
:100AD00000F096F9C4B21048007800F0800090B998
:100AE0000D480078062808DA0B4801780078401C89
:100AF000094A10700948445405E00748007840F05E
:100B000080000549087000BF40F22551014800F0FF
:100B100093F810BD004800400500002006000020AA
:100B200000B585B001210420FFF71EFE0121480415
:100B3000FFF70AFE18208DF813000420ADF810000E
:100B400003208DF8120004A91648FFF7F5FC0420D5
:100B50008DF813000820ADF8100004A91148FFF724
:100B6000EBFC4FF4614000900020ADF80C000C202D
:100B7000ADF80A000020ADF80800ADF80600ADF8A9
:100B800004006946084800F0CFF8012240F22551E0
:100B9000054800F0A3F80121034800F05CF805B017
:100BA00000BD0000000801400044004000B585B0D1
:100BB00001210820FFF7D8FD01218804FFF7C4FDBB
:100BC00018208DF813004FF48060ADF8100003205A
:100BD0008DF8120004A91648FFF7AEFC04208DF82A
:100BE00013004002ADF8100004A91148FFF7A4FC5F
:100BF0004FF4165000900020ADF80C000C20ADF81A
:100C00000A000020ADF80800ADF80600ADF80400B9
:100C10006946084800F088F8012240F2255105484D
:100C200000F05CF80121034800F015F805B000BDA4
:100C3000000C01400048004010B50022002340F69F
:100C40006A14A14200D100BF0A1201249440A3B249
:100C5000DC43048010BD21B1828942F400528281BC
:100C600004E082894DF6FF731A4082817047024684
:100C70000020B1F5007F00D100BF13880B400BB1FD
:100C8000012000E00020704770B5024600240023D8
:100C90000025002040F66A16B14200D100BFC1F322
:100CA000421501F01F03012606FA03F3012D02D1BC
:100CB0009689334006E0022D02D1168A334001E0C6
:100CC000968A33400C12012606FA04F41688344042
:100CD00013B10CB1012000E0002070BDF0B5034657
:100CE000002400260025002040F66A17B94200D1F2
:100CF00000BF1846C1F3421401F01F06012707FA8E
:100D000006F5012C01D10C3004E0022C01D1103089
:100D100000E014301AB107682F43076002E007684B
:100D2000AF430760F0BD00002DE9F04786B00546EF
:100D30000E460024A24600BFA1460027B08900B19C
:100D400000BF2F462C8A4CF6FF700440F088044305
:100D50002C82AC894EF6F3100440B08831890843E8
:100D6000718908430443AC81AC8A4FF6FF400440CC
:100D7000B0890443AC8201A8FFF706FD1F488742F3
:100D800002D1DDF810A001E0DDF80CA0A88900F484
:100D9000004040B10AEBCA0000EB0A10316849007C
:100DA000B0FBF1F807E00AEBCA0000EB0A1031686B
:100DB0008900B0FBF1F86420B8FBF0F004012009D1
:100DC000642101FB1089A88900F4004040B1322061
:100DD00000EBC900B0FBF1F000F00700044308E0AD
:100DE000322000EB09106421B0FBF1F000F00F009D
:100DF00004432C8106B0BDE8F087000000380140B4
:100E000001468888C0F308007047C1F30802828059
:100E1000704700BFFEE702E008C8121F08C1002AA1
:100E2000FAD170477047002001E001C1121F002A6B
:100E3000FBD1704770B504460F4800684FF47A71D3
:100E4000B0FBF1F63046FFF7AFFD002508E000BF2C
:100E50004FF0E020006900F480300028F8D06D1CCD
:100E6000A542F4D34FF0E020006920F001004FF0DC
:100E7000E021086170BD0000F4000020FFF7EEFCE7
:100E8000FFF74EFEFFF792FEFFF7E2FB0348FFF786
:100E900067FA02E00148FFF781FAFBE7080100204A
:100EA000C00E00080000002008010000160E000817
:100EB000C80F00080801002060040000260E00088A
:100EC000000000000000000000000000EF01FFFF34
:100ED000FFFF010003330037EF01FFFFFFFF0100B9
:100EE000030D0011EF01FFFFFFFF0100033000348D
:100EF000EF01FFFFFFFF0100073C03010100004974
:100F0000EF01FFFFFFFF0100073C02040402005055
:100F1000EF01FFFFFFFF0100073C02020202004C4D
:100F2000EF01FFFFFFFF01000831000004000F0088
:100F300000EF01FFFFFFFF010003010005EF01FFCC
:100F4000FFFFFF01000402010008EF01FFFFFFFFA8
:100F500001000402020009EF01FFFFFFFF0100088A
:100F600004010000FFFF020CEF01FFFFFFFF010083
:100F7000070C000000010000EF01FFFFFFFF010070
:100F80000434000039EF01FFFFFFFF0100033500CB
:100F900039EF01FFFFFFFF0100031D0021000000EA
:100FA0000001020304010203040607080902040603
:100FB0000800000000A24A04000000000000000039
:080FC000010203040607080901
:0400000508000131BD
:00000001FF
