:020000040800F2
:10000000700500200D010008AD1B00080D1A000846
:10001000A91B000893030008492100080000000004
:10002000000000000000000000000000611C00084B
:100030009703000800000000B51B0008631C0008BF
:1000400027010008270100082701000827010008F0
:1000500027010008270100082701000827010008E0
:1000600027010008270100082701000827010008D0
:1000700027010008270100082701000827010008C0
:1000800027010008270100082701000827010008B0
:10009000270100082701000827010008990300082C
:1000A00000000000270100082701000827010008C0
:1000B0002701000827010008270100082701000880
:1000C0002701000827010008270100082701000870
:1000D0002701000827010008E9200008392100084D
:1000E0002701000827010008270100082701000850
:1000F00027010008DFF810D000F0D8F800480047CA
:100100004D230008AFF300807005002006488047AB
:1001100006480047FEE7FEE7FEE7FEE7FEE7FEE7EC
:10012000FEE7FEE7FEE7FEE7D51C0008F500000845
:100130002DE9F05F0546002092469B46884606461C
:10014000814640241BE0284641464746224600F0AF
:1001500064F853465A46C01A914110D311461846C6
:10016000224600F04BF82D1A67EB01084F46224655
:100170000120002100F042F817EB00094E41201E3B
:10018000A4F10104DFDC484631462A464346BDE877
:10019000F09FD2B201E000F8012B491EFBD270475C
:1001A0000022F6E710B513460A4604461946FFF743
:1001B000F0FF204610BD70B5064601F0F3FF04685D
:1001C00005460A220021304600F037F82C6070BD49
:1001D00030B50B46014600202022012409E021FA17
:1001E00002F59D4205D303FA02F5491B04FA02F514
:1001F0002844151EA2F10102F1DC30BD202A04DBE7
:10020000203A00FA02F1002070479140C2F1200329
:1002100020FA03F3194390407047202A04DB203A68
:1002200021FA02F00021704721FA02F3D040C2F116
:10023000200291400843194670472DE9F047914646
:100240000F4680460446002614F8015B2DB100F0ED
:100250003FF80068405DC007F6D12B2D02D02D2D50
:1002600018D0641E4A463946204600F035F827B1BA
:100270003968A14201D1C7F8008071054FF002042E
:100280000BD54042002803DD01F08CFF0460A0077D
:10029000BDE8F08746F48066E4E70028F8DA01F06C
:1002A00081FF04606FF00040F2E70000064C074D4C
:1002B00006E0E06840F0010394E807009847103436
:1002C000AC42F6D3FFF71AFFEC2700080C28000811
:1002D00000487047E82700082DE9F05F8246007863
:1002E000002715468B460AF10104B946302801D093
:1002F0009DB113E014F8010B0127782803D058288A
:1003000001D045B10AE00DB1102D07D1002710250D
:1003100014F8010B02E0082500E00A250026B0468B
:100320000EE005FB080005FB06F1012701EB104676
:100330001FFA80F8B6F5803F00D3B94614F8010BD8
:10034000294600F018F80028EBDABBF1000F05D0C1
:100350000FB1641E00E05446CBF80040B9F1000F25
:1003600006D001F01FFF02210160C81EBDE8F09F0A
:1003700048EA0640FAE73A2800D2303820F0200256
:10038000412A01D3A2F13700884201D34FF0FF3058
:10039000704700BFFEE770470748006800F0200084
:1003A00040B12020044908600448007840F08000F3
:1003B0000249087070470000140401400C0000203E
:1003C00072B600BFFEE7000070B504460D46214638
:1003D000102000F09FF902E0012000F017FA0B480E
:1003E000007810B9681E051EF6D1094880790728E3
:1003F00002D10748407A00E0FF200646FF22142180
:100400000348FFF7C6FE304670BD00000000002024
:10041000D400002070B504460D462012174988729A
:10042000CC720846807A1530C97A08440012134904
:1004300088730846807A1530C97A08440F49C87312
:10044000102000F067F902E0012000F0DFF90C480D
:10045000007810B9681E051EF6D10A488079072871
:1004600002D10848407A00E0FF200646FF2214210E
:100470000448FFF78EFE304670BD0000A900002042
:1004800000000020D400002070B504460E490C2066
:1004900000F040F902E0012000F0B8F90B480078C4
:1004A00010B9601E041EF6D109488079072802D1D0
:1004B0000748407A00E0FF200546FF221421044847
:1004C000FFF767FE284670BD4900002000000020AD
:1004D000D400002070B504460D4620121D498872D4
:1004E000CC720846807A5430C97A084400121949FF
:1004F000C8730846807A5430C97A0844154908748C
:10050000112000F007F902E0012000F07FF9124805
:10051000007818B9681E80B2051EF5D10F48407AE0
:1005200040B90FA001F012FE4FF4FA611748FFF72F
:100530004BFF70BD35B916490C2000F0EBF83220A6
:1005400000F064F94FF4FA611248FFF73DFF00BF75
:10055000EFE700006100002000000020D400002030
:100560000D0A2020202020202020203E3E3ED6B80C
:10057000CEC6D7A2B2E1B3C9B9A63C3C3C202020EC
:100580002020202020200D0A000000002D00002047
:10059000550000201D00002070B504460E490D20B6
:1005A00000F0B8F802E0012000F030F90B480078C4
:1005B00010B9601E041EF6D109488079072802D1BF
:1005C0000748407A00E0FF200546FF221421044836
:1005D000FFF7DFFD284670BD7E00002000000020F0
:1005E000D400002070B504460E490C2000F092F8AB
:1005F00002E0012000F00AF90B48007810B9601EF3
:10060000041EF6D109488079072802D10748407AAC
:1006100000E0FF200546FF2214210448FFF7B9FD42
:10062000284670BD7200002000000020D400002089
:1006300010B54FF4FA60FFF7D5FF08BB4FF4FA602E
:10064000FFF7AAFFE0B94FF4FA6000F043F8B8B939
:100650004FF480710F4800F0D7F90F48C07A0E4967
:10066000897A00EB01200D490880084601880CA01A
:1006700001F06CFD4FF47A710F48FFF7A5FE10BD35
:100680000EA001F063FD4FF47A711148FFF79CFE54
:1006900000BFF4E700040240D40000200400002062
:1006A0000D0AC9A8C3E8B3C9B9A620D6B8CEC649B1
:1006B00044A3BA25640D0A002D0000200D0ACEB413
:1006C000CBD1CBF7B5BDD6B8CEC60D0A0000000021
:1006D0001D00002010B504460B49112000F01AF847
:1006E00002E0012000F092F80848007810B9601E7E
:1006F000041EF6D106488079072802D10448407AC2
:1007000010BDFF20FCE70000980000200000002042
:10071000D400002070B505460E46002407E03119CC
:100720004FF6FF730122054801F006F9641CAC4244
:10073000F5DB00200249087070BD0000E8000020D1
:100740000000002010B502490C20FFF7E3FF10BDA8
:100750003D0000200146002291F82100022808D027
:100760000420886300BF002081F8200000BF012022
:1007700070470868006820F00E000B681860086871
:10078000006820F001000B68186091F8400000F04C
:100790001C0301209840CB6B5860012081F8210098
:1007A00000BF002081F8200000BF1046E0E770B5D0
:1007B0000446002594F82100022803D00420A063F9
:1007C000012520E02068006820F00E002168086004
:1007D0002068006820F001002168086094F840005B
:1007E00000F01C0101208840E16B4860012084F882
:1007F000210000BF002084F8200000BF606B10B112
:100800002046616B8847284670BD000070B50446DD
:1008100000F00AF906462546681C10B10448006835
:10082000054400BF00F000F9801BA842FAD370BD58
:10083000C400002078B503460A46002100240020A9
:10084000C3E001268E40156805EA0604002C72D02C
:10085000157905F00305012D04D0157905F0030580
:10086000022D13D198684E000325B540A8434E00D1
:10087000D568B54028439860586801258D40A84345
:100880001579C5F300158D4028435860157905F09A
:100890000305032D09D0D8684E000325B540A843B1
:1008A0004E009568B5402843D860157905F00305DA
:1008B000022D13D1CE0803F1200555F826004D076F
:1008C000EE0E0F25B540A8434E07F60E1569B5404C
:1008D0002843CE0803F1200545F8260018684E008D
:1008E0000325B540A843157905F003054E00B54032
:1008F00028431860556805F44035002D64D000BFCA
:10090000354D2D6845F00105334E356035462D686F
:1009100005F00105009500BF00BF304D8E0855F869
:1009200026008D072E0F0F25B540A8432C4DAB4256
:1009300002D1002515E047E02A4DAB4201D1012547
:100940000FE0294DAB4201D102250AE0274DAB4211
:1009500001D1032505E0264DAB4201D1042500E07D
:1009600005258E07360FB54028431C4D8E0845F8E7
:100970002600204D2868A043556805F4803505B150
:1009800020431C4D28602D1D2868A043556805F4A0
:10099000003505B12043174D2D1D28602D1D2868F9
:1009A000A043556805F4801505B12043114D083565
:1009B00028602D1D2868A043556805F4001505B171
:1009C00020430C4D0C352860491C1568CD40002D86
:1009D0007FF437AF78BD00002038024008000140A6
:1009E000000002400004024000080240000C0240E7
:1009F0000010024000040140024613690B400BB195
:100A0000012000E00020704710B5426921EA02038E
:100A100002EA010443EA0443836110BD0AB1816123
:100A200001E00B04836170470148006870470000D3
:100A3000BC000020034800680349096808440149D4
:100A400008607047BC000020C400002010B50024DE
:100A5000032000F0B3F80F2000F008F808B10124DB
:100A600001E000F02FF8204610BD000070B50446EC
:100A7000002511480068D8B10F4800684FF47A711A
:100A8000B1FBF0F00D490968B1FBF0F6304600F01B
:100A90002FFD58B9102C07D200222146501E00F01D
:100AA0004FF80748046004E0012502E0012500E05A
:100AB0000125284670BD0000C4000020C8000020A9
:100AC000C000002008B500BF1448006840F0004096
:100AD000124908600846006800F00040009000BF1E
:100AE00000BF00BF081F006840F00100091F086038
:100AF0000846006800F00100009000BF00BF00BF82
:100B0000081D006840F08050091D08600846006814
:100B100000F08050009000BF00BF08BD24380240A4
:100B200001460846002809DB00F01F0301229A4015
:100B300043099B0003F1E023C3F8002100BF704785
:100B40002DE9F05F80460D461646002701F00EFBAA
:100B5000074639462A46334601F00700C0F1070A26
:100B6000BAF1040F02D94FF0040A01E0C0F1070AFC
:100B7000D14600F1040ABAF1070F02D24FF0000A81
:100B800001E0A0F1030AD4464FF0010A0AFA09FA7B
:100B9000AAF1010A0AEA020A0AFA0CFA4FF0010B5A
:100BA0000BFA0CFBABF1010B0BEA030B4AEA0B044B
:100BB0002146404601F0E2FABDE8F09F00BF00F098
:100BC0000702064B19684FF6FF031940044B0B430D
:100BD00043EA0221014B196000BF70470CED00E0B1
:100BE0000000FA05704700002DE9F04104460D466B
:100BF00014B90120BDE8F0817E48006800F00100D2
:100C0000A84218D200BF012D05D17A48006840F0F3
:100C10000400784908607748006820F00100284304
:100C20007449086000BF0846006800F00100A8424F
:100C300001D00120DEE7207800F00200022807D171
:100C40006D48006820F0F000A16808436A49086018
:100C5000207800F0010000287FD06068022807D1CA
:100C600065480838006800F40030F8B90120C1E791
:100C70006068032807D160480838006800F00070F9
:100C8000A0B90120B6E76068012807D15A480838A2
:100C9000006800F0020048B90120ABE75648083868
:100CA000006800F4007008B90120A3E7524800680A
:100CB00020F00300616808434F490860FFF7B4FE65
:100CC00006466068022810D108E0FFF7ADFE801BE1
:100CD00041F28831884201D903208BE746480068F9
:100CE00000F00C000828F0D137E06068032810D12C
:100CF00008E0FFF799FE801B41F28831884201D954
:100D0000032077E73C48006800F00C000C28F0D185
:100D100023E06068012810D108E0FFF785FE801B02
:100D200041F28831884201D9032063E732480068E4
:100D300000F00C000428F0D10FE008E0FFF774FE8B
:100D4000801B41F28831884201D9032052E72A48AA
:100D5000006800F00C000028F0D12648006800F080
:100D60000100A84218D900BF012D05D12148006813
:100D700040F004001F4908601E48006820F0010090
:100D800028431C49086000BF0846006800F00100C5
:100D9000A84201D001202DE7207800F004000428AB
:100DA00007D11548006820F4E060E1680843124963
:100DB0000860207800F00800082808D10E48006874
:100DC00020F46050216940EAC1000B49086000F03E
:100DD00047F809490968C1F30311084A515CC84042
:100DE0000749086007480068FFF740FE0746384695
:100DF00000E70000003C0240083802404D27000890
:100E0000C8000020C0000020012001490867704789
:100E1000000047420148006870470000C8000020F9
:100E200000B5FFF7F7FF04490968C1F30221034A3F
:100E3000515CC84000BD0000083802405D27000832
:100E400000B5FFF7E7FF04490968C1F3C221034A6F
:100E5000515CC84000BD0000083802405D27000812
:100E60002DE9F05F2248D0F8009009F00C0070B333
:100E7000042804D0082804D00C2829D103E01D4DF3
:100E800032E01D4D30E01D48C9F3834110F801A048
:100E9000C9F38150441C1648006800F4803050B1FA
:100EA0001548A0FB0A700146224600233846FFF78A
:100EB0003FF9064609E00F48A0FB0A7001462246AA
:100EC00000233846FFF734F9064635460CE000E0CB
:100ED00000BF0748001F0068C0F3423B0BF1010050
:100EE00001218140CD0300BF00BF2846BDE8F09F2F
:100EF000083802400024F40000127A004427000859
:100F000010B50648006800F08000802805D1FFF782
:100F100069FE80200149891C087010BD0C38024010
:100F20002DE9F843044614B90120BDE8F883FE48D2
:100F3000006800F00C06FC48006800F48037207858
:100F400000F00100002875D0082E04D00C2E0ED120
:100F5000B7F5803F0BD1F4480838006800F4003042
:100F6000002867D06068002864D10120DDE700BF59
:100F70006068012808D1EC480838006840F48030E7
:100F8000E949083908602DE0606868B9E648083822
:100F9000006820F48030E449083908600846006899
:100FA00020F4802008601DE0606805280DD1DE482F
:100FB0000838006840F48020DB490839086008469A
:100FC000006840F4803008600CE0D74808380068BA
:100FD00020F48030D449083908600846006820F4BD
:100FE0008020086000BF606890B1FFF71DFD0546D6
:100FF00006E0FFF719FD401B642801D9032094E7A0
:10100000C9480838006800F400300028F1D011E029
:10101000FFF70AFD054606E0FFF706FD401B6428C2
:1010200001D9032081E7C0480838006800F4003087
:101030000028F1D1207800F00200022853D1042EBC
:1010400002D00C2E17D1B7B9B7480838006800F0A5
:10105000020020B1E068012801D0012065E7B24814
:10106000001F006820F4F850216940EA0120AE49D1
:10107000091F086037E0E06800B30120AB49086051
:10108000FFF7D2FC054606E0FFF7CEFC401B022826
:1010900001D9032049E7A4480838006800F002009D
:1010A0000028F1D0A048001F006820F4F850216902
:1010B00040EA01209C49091F086014E000209B4978
:1010C0000860FFF7B1FC054606E0FFF7ADFC401BEA
:1010D000022801D9032028E793480838006800F067
:1010E00002000028F1D1207800F01000102871D102
:1010F000F6BB8D480838006800F4007018B1A0698C
:1011000008B9012011E78849091F206A096801F41C
:101110006041884219D9206A00F04EFD08B10120D3
:1011200003E78148001F006820F46040216A0843FB
:101130007D49091F0860217F7B48001F006861F31B
:101140001F607949091F08601AE07748001F00688E
:1011500020F46040216A08437349091F0860217F19
:101160007148001F006861F31F606F49091F00E0AC
:1011700020E00860206A00F01FFD08B10120D4E6DD
:101180000121206A01EB503101208840C0036649EB
:101190000968C1F30311664A515CC840654908609B
:1011A00065480068FFF762FC8046B8F1000F42D046
:1011B0004046BAE6A06948B301205C490862FFF7DF
:1011C00033FC054607E0FFF72FFC401B022802D93D
:1011D0000320AAE62FE054480838006800F40070A5
:1011E0000028F0D05048001F006820F46040216AB9
:1011F00008434D49091F0860217F4B48001F0068C4
:1012000061F31F604849091F086014E00020474946
:101210000862FFF709FC054606E0FFF705FC401BE6
:10122000022801D9032080E63F480838006800F40E
:1012300000700028F1D1207800F0080008282CD197
:101240006069A8B101203D490860FFF7EDFB054644
:1012500006E0FFF7E9FB401B022801D9032064E602
:1012600031482C30006800F002000028F1D014E072
:10127000002032490860FFF7D7FB054606E0FFF77C
:10128000D3FB401B022801D903204EE626482C3010
:10129000006800F002000028F1D1207800F004007E
:1012A00004286ED14FF000091F481C30006800F080
:1012B000805088B900BF1C481C30006840F0805046
:1012C00019491C3108600846006800F08050009001
:1012D00000BF00BF4FF001091948006800F480709A
:1012E000B0B91748006840F4807015490860FFF7EE
:1012F0009BFB054606E0FFF797FB401B642801D9DE
:10130000032012E60E48006800F480700028F2D036
:1013100000BFA068012817D103482C30006840F4B2
:10132000807001492C310DE008380240000047422E
:101330004D270008C8000020C0000020800647425A
:1013400000700040086028E0A06858B9664800684E
:1013500020F48070644908600846006820F48060CA
:1013600008601AE0A06805280CD15F48006840F4C6
:1013700080605D4908600846006840F4807008603D
:101380000BE040E05848006820F48070564908603F
:101390000846006820F48060086000BFA06898B12B
:1013A000FFF742FB054608E0FFF73EFB401B41F21A
:1013B0008831884201D90320B7E54B48006800F422
:1013C00000700028F0D012E0FFF72EFB054608E081
:1013D000FFF72AFB401B41F28831884201D90320E4
:1013E000A3E54148006800F400700028F0D1B9F18D
:1013F000010F07D13C481038006820F080503A496E
:101400001039086000BF606AA8B30C2E52D0606A21
:10141000022839D1002035490866FFF705FB05464B
:1014200006E0FFF701FB401B022801D903207CE501
:101430002D483438006800F000700028F1D1D4E95C
:101440000A010843216B084327492C39096821F414
:101450007D01084324492C3908600120234908668E
:10146000FFF7E2FA054607E0FFF7DEFA401B022825
:1014700002D9032059E535E01B483438006800F0F4
:1014800000700028F0D02DE0002018490866FFF712
:10149000CBFA054606E0FFF7C7FA401B022801D940
:1014A000032042E510483438006800F0007000283E
:1014B000F1D117E0606A012800D136E50A482C38DE
:1014C000076807F48031A06A814209D107F47011DE
:1014D000E06A814204D107F44001206B814201D0CF
:1014E000012022E5002020E5343802400000474278
:1014F00070B504462546681EB0F1807F01D30120F7
:101500000FE0681E4FF0E02148610F214FF0FF30DF
:1015100000F034FE00204FF0E021886107200861D0
:10152000002070BD704770472DE9F84F04462068D1
:1015300005682068C668206847694FF00009CA46F8
:1015400005F00F09B9F1000F0AD105F0200038B1FC
:1015500006F0200020B1204600F0F2FBBDE8F88F35
:10156000B9F1000F72D007F0010018B906F49070BD
:1015700000286BD005F0010030B106F4807018B17E
:10158000206C40F00100206405F0040030B107F049
:10159000010018B1206C40F00200206405F0020048
:1015A00030B107F0010018B1206C40F00400206455
:1015B00005F0080048B106F0200010B907F001005E
:1015C00018B1206C40F008002064206C70B305F066
:1015D000200028B106F0200010B1204600F0B0FB3A
:1015E00020684069C0F3801A206C00F0080010B930
:1015F000BAF1000F23D0204600F077FB2068406945
:1016000000F04000402816D12068406920F04000DA
:1016100021684861A06B50B15548A16B4863A06B2D
:10162000FFF7C5F810B1A06B416B88470CE020466E
:10163000FFF779FF08E02046FFF775FF04E020463A
:10164000FFF771FF0020206488E7FFE7206B012887
:1016500078D105F01000002874D006F010000028A2
:1016600070D000BF002000902068006800902068C3
:101670004068009000BF00BF2068406900F0400053
:10168000402838D1A06B006840681FFA80F8B8F194
:10169000000F2FD0A08D40452CDDA4F82E80A06B2C
:1016A000806920281FD02068C06820F480702168DD
:1016B000C8602068406920F0010021684861206806
:1016C000406920F0400021684861202084F83E00F5
:1016D000002020632068C06820F010002168C860E6
:1016E000A06BFFF737F8A08DE28D801A81B22046FB
:1016F000FFF718FF32E7A08DE18D401A1FFA80F83E
:10170000E08DE8B1B8F1000F1AD02068C06820F46D
:1017100090702168C8602068406920F0010021684D
:101720004861202084F83E00002020632068C068C3
:1017300020F010002168C86041462046FFF7F2FE05
:101740000CE7FFE705F0800030B106F0800018B12B
:10175000204600F062FC01E705F0400030B106F0E1
:10176000400018B1204600F0DBFAF7E600BFF5E6CE
:10177000D71C000810B504460CB9012010BDA069A3
:1017800000B100E000BF94F83D0028B9002084F8C3
:101790003C00204600F028F8242084F83D00206812
:1017A000C06820F400502168C860204600F03AFB71
:1017B0002068006920F49040216808612068406931
:1017C00020F02A00216848612068C06840F4005079
:1017D0002168C86000202064202084F83D0084F83F
:1017E0003E000020CAE7000010B586B00446142170
:1017F00001A8FEF7D5FC3A492068884234D100BFE1
:101800003848006840F400303649086008460068EF
:1018100000F40030009000BF00BF00BF314808381E
:10182000006840F001002F49083908600846006848
:1018300000F00100009000BF00BF0C2001900220CA
:10184000029000200390032004900720059001A936
:101850002548FEF7EFFF002211462620FFF770F91A
:101860002620FFF75DF938E020492068884234D10E
:1018700000BF1C48006840F480201A4908600846F0
:10188000006800F48020009000BF00BF00BF154832
:101890000838006840F0020012490839086008461C
:1018A000006800F00200009000BF00BF4FF44060ED
:1018B0000190022002900020039003200490072052
:1018C000059001A90A48FEF7B5FF00220221272052
:1018D000FFF736F92720FFF723F906B010BD000007
:1018E000004400402438024000000240004800400C
:1018F0000004024070B504460D46164694F83E00BA
:10190000202816D105B10EB9012070BD00BF94F892
:101910003C00012801D10220F7E7012084F83C00B7
:1019200000BF0020206332462946204600F052FBCB
:10193000EBE70220E9E770472DE9F84F04460E4631
:10194000174699464FF0000A94F83D0020285AD1D6
:1019500006B117B90120BDE8F88F00BF94F83C002C
:10196000012801D10220F6E7012084F83C0000BFE5
:1019700000202064212084F83D00FFF755F88246BE
:10198000A784E784A068B0F5805F04D1206910B90E
:101990000025B04602E035464FF0000800BF0020A9
:1019A00084F83C0000BF1BE0534600228021204603
:1019B000CDF8009000F061FB08B10320CBE745B9FA
:1019C000B8F80000C0F308002168486008F1020878
:1019D00003E02878216848606D1CE08C401EE0849C
:1019E000E08C0028E0D15346002240212046CDF86B
:1019F000009000F042FB08B10320ACE7202084F8FF
:101A00003D000020A7E70220A5E7704700BFFEE7E2
:101A100000B587B0142102A8FEF7C2FB00BF3F4803
:101A2000006840F004003D4908600846006800F086
:101A30000400019000BF00BF00BF0846006840F0EE
:101A4000200008600846006800F02000019000BFF8
:101A500000BF00BF0846006840F00100086008466B
:101A6000006800F00100019000BF00BF00BF084601
:101A7000006840F0020008600846006800F00200BC
:101A8000019000BF00BF002250212548FEF7C6FF8D
:101A90004FF460400290032003900020049002A9BC
:101AA0002048FEF7C7FE49F683700290032003909A
:101AB0000020049002A91A48FEF7BCFE10200290F4
:101AC00001200390022004900020059002A91448F0
:101AD000FEF7B0FE202002904FF488100390022001
:101AE000049002A90E48FEF7A5FE402002900120B6
:101AF000039000200490059002A90948FEF79AFE81
:101B00004FF2FF300290032003900020049002A9BE
:101B10000548FEF78FFE07B000BD00001C380240EC
:101B200000000240000802400004024010B50122FB
:101B30000C490D48FFF7DEFE0C480B4908604FF4D6
:101B400061404860002108488160C16001610C214A
:101B5000416100218161C161FFF70CFE08B1FEF710
:101B60002FFC10BDB9000020E80000200044004018
:101B700010B50B480B4908604FF41650486000211F
:101B800008488160C16001610C21416100218161CF
:101B9000C161FFF7EFFD08B1FEF712FC10BD0000B8
:101BA000004800402C01002000BFFEE7FFF7A8F925
:101BB00000BFFEE77047000018B503460022254825
:101BC000006800F0F00050BB22481C30006800F0B4
:101BD000805020B12048006800F4C05118E000BFD8
:101BE0001C481C30006840F080501A4C1C342060A7
:101BF0002046006800F08050009000BF00BF1648EB
:101C0000006800F4C0512046006820F08050206039
:101C1000B1F5C05F03D1B3F5404F00D1012200BF41
:101C2000012A05D10D48006840F004000B4C2060EB
:101C30000A48006820F001001043084C206000BFF3
:101C40002046006800F00100904201D0012018BD3C
:101C50000020FCE70838024000700040003C0240D1
:101C6000704710B5FEF7E6FE10BD000000B593B05A
:101C7000342106A8FEF794FA142101A8FEF790FA81
:101C80001348006820F4C05040F400601049086018
:101C900001200690079000200F9006A8FFF740F95A
:101CA00008B1FEF78DFB0F20019002200290A020CA
:101CB0000390002004900590002101A8FEF794FFF6
:101CC00008B1FEF77DFBFFF79FF813B000BD0000E1
:101CD00000700040704770B505466C6A0020E085D2
:101CE000E0842046FFF71FFC70BD0168C96821F43D
:101CF00090710268D1600168496921F001010268B0
:101D00005161016B012905D10168C96821F01001F9
:101D10000268D160202180F83E10002101637047E5
:101D200010B504462068C06820F040002168C860F3
:101D3000202084F83D002046FFF767FE002010BDFC
:101D4000F8B5044694F83E00222869D1A068B0F5A1
:101D5000805F0CD1206950B90025A66A20684068D0
:101D6000C0F308003080A06A801CA06215E0A56A5C
:101D70000026A068B0F5805F03D0A06828B920696C
:101D800018B920684068287004E02068406800F0B6
:101D90007F002870A06A401CA062E08D401E80B2C7
:101DA000E085A8BB2068C06820F020002168C860DA
:101DB0002068C06820F480702168C860206840698D
:101DC00020F0010021684861202084F83E00206B4B
:101DD00001281ED1002020632068C06820F0100078
:101DE0002168C8602068006800F0100010280AD13F
:101DF00000BF0020009020680068009020684068C4
:101E0000009000BF00BFA18D2046FFF78BFB03E0D1
:101E100004E02046FFF78FFD0020F8BD0020FCE71E
:101E20000220FAE770B504462168096921F440519F
:101E3000E2681143226811612269A1681143626955
:101E40001143E26941EA02052168C96849F20C625E
:101E5000914329432268D1602168496921F4407186
:101E6000A269114322685161594A2168914202D105
:101E7000FEF7E6FF01E0FEF7D3FFE169B1F5004FA1
:101E800053D100EBC00101EB001162685200B1FBBD
:101E9000F2F16422B1FBF2F10A0100EBC00101EBA7
:101EA000001163685B00B1FBF3F100EBC00303EBCF
:101EB000001366687600B3FBF6F36426B3FBF6F313
:101EC00003EBC30606EB0313A1EB8301322303EB01
:101ED000C1016423B1FBF3F101F0F80102EB41020F
:101EE00000EBC00101EB001163685B00B1FBF3F193
:101EF00000EBC00303EB001366687600B3FBF6F358
:101F00006426B3FBF6F303EBC30606EB0313A1EB66
:101F10008301322303EBC1016423B1FBF3F101F030
:101F2000070111442268916051E000EBC00101EB10
:101F3000001162689200B1FBF2F100EBC00202EB0B
:101F4000001263689B00B2FBF3F26423B2FBF3F26E
:101F500002EBC20303EB0212A1EB8201322202EB7D
:101F600001116422B1FBF2F101F0F00100EBC002BB
:101F700002EB001263689B00B2FBF3F26423B2FB36
:101F8000F3F201EB021200EBC00101EB00116368F8
:101F90009B00B1FBF3F100EBC00303EB0013666899
:101FA000B600B3FBF6F36426B3FBF6F303EBC3060C
:101FB00006EB0313A1EB8301322303EB011164232E
:101FC000B1FBF3F101F00F0111442268916070BD83
:101FD0000038014010B5034699629A85DA850020E1
:101FE0001864222083F83E0000BF002083F83C00E4
:101FF00000BF1868C06840F480701C68E060186812
:10200000406940F001001C6860611868C06840F0D9
:1020100020001C68E060002010BD014691F83D00E2
:10202000212828D18868B0F5805F0BD1086948B9AC
:102030000A6A1088C0F308000B685860086A801CA0
:10204000086205E00B6A581C086218780B68586033
:10205000C88C401E80B2C88458B90868C06820F097
:1020600080000B68D8600868C06840F040000B68CA
:10207000D860002070470220FCE72DE9F0410446BB
:102080000D4617469846069E21E0701CF8B12EB109
:10209000FEF7CAFCA0EB0800B04218D92068C0685F
:1020A00020F4D0702168C8602068406920F00100E9
:1020B00021684861202084F83D0084F83E0000BF7C
:1020C000002084F83C0000BF0320BDE8F0812068B8
:1020D00000682840A84201D1012000E00020B84259
:1020E000D3D00020F1E7000008B510480068006870
:1020F000C0F30010A8B100BF002000900B4800689A
:1021000000680090094800684068009000BF00BF68
:1021100014200649C88506488862012005490870D0
:1021200008BD0248FFF700FA00BFF9E7E800002009
:10213000D40000200000002010B50248FFF7F4F999
:1021400010BD00002C01002000BFFEE70FB4054BBE
:1021500010B503A9044A029800F038F810BC5DF8E5
:1021600014FB000021230008CC0000200248006876
:10217000C0F30220704700000CED00E010B500280D
:1021800004DB0A07130E054A135406E00A07140E6F
:10219000034A00F00F031B1FD45410BD00E400E0FD
:1021A00018ED00E000487047D000002002E008C8A9
:1021B000121F08C1002AFAD170477047002001E0C1
:1021C00001C1121F002AFBD1704700002DE9FF4F0B
:1021D00089B09B460446002506E025280BD05A46C8
:1021E0000B999047641C6D1C20780028F5D10DB028
:1021F0002846BDE8F08F0027B8460122474900E095
:10220000074314F8013F203B02FA03F00842F7D1DC
:1022100020782E2819D114F8010F47F004072A2836
:102220000ED06FF02F022078A0F1300109290CD8D0
:1022300008EB880102EB410100EB0108641CF2E7A6
:102240000A98641C50F8048B0A9020780028CED09D
:10225000642808D0692806D075281ED05A460B99E4
:1022600090476D1C58E00A994FF00A0901C90A917C
:10227000002802DA40422D2102E0390504D52B2145
:102280008DF82010012103E0F90704D02021F7E7A1
:102290008A4608AE0DE00021FAE70A994FF00A09D4
:1022A00001C90A91F7E74946FDF792FF303106F878
:1022B000011D0028F7D1ADEB060000F120097807D9
:1022C00001D44FF00108C84502DDA8EB090000E089
:1022D00000208046002706E008A85A46C05D0B99FA
:1022E00090476D1C7F1C5745F6DB04E030205A46B2
:1022F0000B9990476D1CB8F10001A8F10108F5DCBD
:1023000005E016F8010B5A460B9990476D1CB9F180
:102310000001A9F10109F4DC641C65E7092801004A
:1023200013B50C464FF6FF73012269460648FFF7C6
:1023300003FB00BF044800680068C0F38010002859
:10234000F8D000981CBD00002C010020FEF77EFB99
:10235000FFF78CFCFFF75CFBFFF7E8FBFFF708FCDF
:10236000142294499448FFF7C5FA93480068C0685E
:1023700040F0100090490968C86090480068C06843
:1023800040F020008D490968C860012210218C4866
:10239000FEF744FB6420FEF739FAFEF7D3F900BFDD
:1023A00020218748FEF728FB0028F9D100221021C0
:1023B0008348FEF733FB2020824908600022012178
:1023C0001720FEF7BDFB1720FEF7AAFBF0E07E48C2
:1023D000007800F0F00090286CD0A02828D0C02809
:1023E00025D17AA0FFF7B2FE83A0FFF7AFFE002051
:1023F0007549087000BF7448007800F0800000281C
:10240000F9D08748FDF7D7FE86490880084601883D
:1024100085A0FFF79BFE8E48007840F008008C49AD
:1024200008708CA0FFF792FE00206749087062E0F8
:1024300093A0FFF78BFE012210216148FEF7EEFA10
:10244000C820FEF7E3F900205F49087074480021B6
:102450000160818093A0FFF779FE41F28830FEF79A
:10246000D5F96F48FDF7A7FE6E4908800846018838
:1024700093A0FFF76BFE4FF4FA616A480088FDF7FE
:10248000C9FF38B94FF4FA619448FDF79DFF94A055
:10249000FFF75CFE00204C49087061480021016094
:1024A0008180002210214648FEF7B8FA00204649F4
:1024B000087020E090A0FFF749FE0122102140485B
:1024C000FEF7ACFAC820FEF7A1F94FF4FA60FDF769
:1024D000DBFF38B94FF47A718048FDF775FF8FA0A4
:1024E000FFF734FE002038490870002210213448DC
:1024F000FEF794FA00BF00BF55480078802802D04C
:10250000882854D127E0012210212D48FEF786FAB1
:102510006420FEF77BF94FF47A718948FDF754FF88
:102520000520FEF773F9FEF783F84FF4FA70FEF713
:102530006DF9FEF707F900BF20212148FEF75CFA8C
:102540000028F9D1002210211D48FEF767FA00206B
:102550003F4908702BE0012210211948FEF75EFA6E
:102560006420FEF753F94FF47A717548FDF72CFF9C
:102570000520FEF74BF942F210712A480088FDF75A
:10258000A9FF4FF4FA70FEF741F9FEF7DBF800BF40
:1025900020210B48FEF730FA0028F9D10022102143
:1025A0000748FEF73BFA00202949087000BF00BF2A
:1025B0000DE70000D4000020E80000202C010020DE
:1025C0000000024014040140010000200D0AA1AAED
:1025D000A1AAA1AAA1AAA1AAA1AAD7A2B2E1D6B8EA
:1025E000CEC6C4A3CABDA1AAA1AAA1AAA1AAA1AAF2
:1025F000A1AA0D0A000000000D0AA1A120202020A0
:1026000020203E3E3EC7EBCFC8CAE4C8EBD6B8CECA
:10261000C649443C3C3CA1A12020200D0A000000FA
:1026200006000020020000200D0AA1A12020202089
:1026300020203E3E3ECAE4C8EBD6B8CEC649443A56
:1026400025643C3C3CA1A12020200D0A0000000094
:102650000C0000200D0A203E3E3EC7EBBDABD0E88B
:10266000D2AAD7A2B2E1B5C4CAD6D6B8B0B4D1B94D
:10267000C4A3BFE934B4CE3C3C3C200D0A000000AA
:102680000D0AA1AAA1AAA1AAA1AAC9BEB3FDD6B842
:10269000CEC6C4A3CABDA1AAA1AAA1AAA1AA0D0A75
:1026A000000000000D0A3E3E3EC7EBCFC8CAE4C89A
:1026B000EBD6B8CEC649443C3C3C0D0A00000000B5
:1026C0000D0A3E3E3ECAE4C8EBB5C4D6B8CEC649F4
:1026D00044A3BA25643C3C3C0D0A00002D000020B8
:1026E0000D0A3E3E3ED2D1C9BEB3FDD6B8CEC63CE1
:1026F0003C3C0D0A000000000D0AA1AAA1AAA1AA53
:10270000A1AAC7E5BFD5D6B8CEC6C4A3CABDA1AAE3
:10271000A1AAA1AAA1AA0D0A000000000D0AA1A168
:10272000A1A1A1A13E3E3ED2D1C7E5BFD5D6B8CE2C
:10273000C63C3C3CA1A1A1A1A1A10D0A0000000042
:102740000D000020030406080C10182030000000C3
:102750000000000000010203040607080900000051
:1027600000010203040040404040404040404041DE
:102770004141414140404040404040404040404055
:1027800040404040404005020202020202020202B2
:1027900002020202020220202020202020202020ED
:1027A000020202020202029090909090901010108B
:1027B0001010101010101010101010101010101019
:1027C00010020202020202888888888888080808A5
:1027D0000808080808080808080808080808080879
:1027E0000802020202400000662700080C280008C8
:1027F00000000020D4000000AC210008E028000800
:10280000D40000209C040000BC210008000000004F
:10281000000000000000000000EF01FFFFFFFF01CB
:1028200000073C030101000049EF01FFFFFFFF012A
:1028300000073C020404020050EF01FFFFFFFF010C
:1028400000073C02020202004CEF01FFFFFFFF0104
:102850000003330037EF01FFFFFFFF0100030D000E
:1028600011EF01FFFFFFFF010003300034EF01FF14
:10287000FFFFFF0100083100000400160000EF0117
:10288000FFFFFFFF010003010005EF01FFFFFFFF56
:1028900001000402010008EF01FFFFFFFF01000437
:1028A00002020009EF01FFFFFFFF01000804010021
:1028B00000FFFF020CEF01FFFFFFFF0100070C000C
:1028C00000000100000000000000000010000000F7
:1028D0000100000068FF1F00000000000000000071
:04000005080000F5FA
:00000001FF
