:020000040800F2
:1000000000050020490100084D0C0008470C0008BD
:10001000490C000853030008A31300080000000067
:100020000000000000000000000000004D0E00086D
:100030005703000800000000350D00088D0F000870
:100040006301000863010008630100086301000800
:1000500063010008630100086301000863010008F0
:1000600063010008630100086301000863010008E0
:1000700063010008630100086301000863010008D0
:1000800063010008630100086301000863010008C0
:1000900063010008630100086301000863010008B0
:1000A00063010008630100086301000863010008A0
:1000B0006301000863010008630100086301000890
:1000C0006301000863010008630100086301000880
:1000D0006301000863010008F10F000851100008D7
:1000E0005903000863010008630100086301000868
:1000F0006301000863010008630100086301000850
:10010000630100086301000863010008630100083F
:10011000630100086301000863010008630100082F
:10012000630100086301000863010008630100081F
:10013000DFF810D000F09AF800480047B115000829
:10014000AFF30080000500200648804706480047BE
:10015000FEE7FEE7FEE7FEE7FEE7FEE7FEE7FEE777
:10016000FEE7FEE7910F000831010008D2B201E07E
:1001700000F8012B491EFBD270470022F6E710B5AC
:1001800013460A4604461946FFF7F0FF204610BD05
:1001900030B505462A460B4612F8010B13F8014B01
:1001A00008B1A042F8D01CB1002802D06D1CF1E7C4
:1001B000284630BD70B5064601F006F904680546CC
:1001C0000A220021304600F018F82C6070BD30B5CE
:1001D0000B46014600202022012409E021FA02F505
:1001E0009D4205D303FA02F5491B04FA02F528449F
:1001F000151EA2F10102F1DC30BD2DE9F047914658
:100200000F4680460446002614F8015B2DB100F02D
:100210003FF80068405DC007F6D12B2D02D02D2D90
:1002200018D0641E4A463946204600F035F827B1FA
:100230003968A14201D1C7F8008071054FF002046E
:100240000BD54042002803DD01F0BEF80460A00792
:10025000BDE8F08746F48066E4E70028F8DA01F0AC
:10026000B3F804606FF00040F2E70000064C074D61
:1002700006E0E06840F0010394E807009847103476
:10028000AC42F6D3FFF758FF58160008781600085E
:1002900000487047541600082DE9F05F8246007848
:1002A000002715468B460AF10104B946302801D0D3
:1002B0009DB113E014F8010B0127782803D05828CA
:1002C00001D045B10AE00DB1102D07D1002710254E
:1002D00014F8010B02E0082500E00A250026B046CC
:1002E0000EE005FB080005FB06F1012701EB1046B7
:1002F0001FFA80F8B6F5803F00D3B94614F8010B19
:10030000294600F018F80028EBDABBF1000F05D001
:100310000FB1641E00E05446CBF80040B9F1000F65
:1003200006D001F051F802210160C81EBDE8F09F1F
:1003300048EA0640FAE73A2800D2303820F0200296
:10034000412A01D3A2F13700884201D34FF0FF3098
:10035000704700BFFEE7704710B54FF4005000F043
:1003600015F848B10548007840F08000034908704E
:100370004FF4005000F004F810BD00000C00002005
:100380000149086070470000140401400146002044
:100390000022074B1B6803EA0102054B14331B685C
:1003A0000B4013B10AB1012000E0002070470000AB
:1003B00000040140002123498279002A3AD00A46EC
:1003C000126803689A430B461A600A1D1268036894
:1003D0009A430B1D1A60027911440A6803681A4394
:1003E0000A60184A0832126803689A43154B0833AA
:1003F0001A601A1D126803689A43124B0C331A6074
:100400004279102A0ED11A1F126803681A430D4B45
:1004100008331A601A1D126803681A43094B0C331B
:100420001A600DE00749427911440A6803681A43CB
:100430000A6005E0027911440A6803689A430A6079
:10044000704700000004014070B504460D46214687
:10045000102000F029FB02E0012001F073F80B48A6
:1004600000780C2802DA681E051EF5D1084880794C
:10047000072802D10648407A00E0FF200646FF2206
:1004800014210348FFF772FE304670BD00000020C3
:10049000EC00002070B504460D4620121749887202
:1004A000CC720846807A1530C97A08440012134984
:1004B00088730846807A1530C97A08440F49C87392
:1004C000102000F0F1FA02E0012001F03BF80C48A6
:1004D00000780C2802DA681E051EF5D109488079DB
:1004E000072802D10748407A00E0FF200646FF2295
:1004F00014210448FFF73AFE304670BDA9000020E1
:1005000000000020EC00002070B504460F490C20CC
:1005100000F0CAFA02E0012001F014F80C4800785B
:100520000C2802DA601E041EF5D10A4880790728DB
:1005300002D10848407A00E0FF200546FF2214213E
:100540000448FFF713FE284670BD00004900002054
:1005500000000020EC00002070B504460D4620127B
:100560001D498872CC720846807A5430C97A084492
:1005700000121949C8730846807A5430C97A084471
:1005800015490874112000F08FFA02E0012000F0F4
:10059000D9FF124800780C2803DA681E80B2051EC5
:1005A000F4D10F48407A40B90EA000F0FDFE4FF4A0
:1005B000FA611248FFF748FF70BD35B910490C20A9
:1005C00000F072FA322000F0BDFF4FF4FA610D48DE
:1005D000FFF73AFF00BFEFE76100002000000020B6
:1005E000EC0000200D0A3E3E3ED6B8CEC6D7A2B2E1
:1005F000E1B3C9B9A63C3C3C0D0A00002D00002027
:10060000550000201D0000200EB50121102000F033
:10061000A3FB0121084600F09FFB0D21022000F002
:1006200067FA28208DF80B004FF40050ADF8080051
:1006300002A9094800F07CFA4FF400500090002015
:100640008DF8040008208DF8050001208DF80600C3
:100650006846FFF7AFFE0EBD0010014070B50446BE
:100660000F490D2000F020FA02E0012000F06AFF9F
:100670000C4800780C2802DA601E041EF5D10A48E6
:100680008079072802D10848407A00E0FF2005461B
:10069000FF2214210448FFF769FD284670BD0000C1
:1006A0007E00002000000020EC00002070B5044611
:1006B0000F490C2000F0F8F902E0012000F042FFA1
:1006C0000C4800780C2802DA601E041EF5D10A4896
:1006D0008079072802D10848407A00E0FF200546CB
:1006E000FF2214210448FFF741FD284670BD000099
:1006F0007200002000000020EC00002010B54FF434
:10070000FA60FFF7D3FFE0B94FF4FA60FFF7A6FFF6
:10071000B8B94FF4FA6000F0A7F990B90E48C07A62
:100720000D49897A00EB01200C49088008460188B0
:100730000BA000F039FE4FF4FA610F48FFF784FE7A
:1007400010BD0EA000F030FE4FF4FA611048FFF724
:100750007BFE00BFF4E70000EC0000200400002056
:100760000D0AC9A8C3E8B3C9B9A620D6B8CEC649F0
:1007700044A3BA25640D0A002D0000200D0ACEB452
:10078000CBD1CBF7B5BDD6B8CEC60D0A0000000060
:100790001D00002010B500F05AFA00F089FC00F0AE
:1007A000CDFC00F09DF9FFF72FFF10BD10B5624999
:1007B0006248FFF7EDFC002830D061A000F0F4FDA6
:1007C000002068490870FF2206215C48FFF7CEFC34
:1007D00065A000F0E9FD00BF624800780028FBDD5D
:1007E000022000F0AFFE5548FFF7E4FC65490880A1
:1007F0000846018864A000F0D7FD00205949087020
:100800004E480021016081806648007840F0080071
:100810006449087064A000F0C7FD57E06D4947487F
:10082000FFF7B6FC002835D06BA000F0BDFD00201E
:100830004C49087041480021016081804AA000F0C5
:10084000B3FD00BF474800780028FBDD022000F020
:1008500079FE3A48FFF7AEFC4A490880084601880D
:1008600049A000F0A1FD4FF4FA6146480088FFF767
:1008700011FE38B94FF4FA616048FFF7E5FD60A05A
:1008800000F092FD0020374908702C4800210160DB
:1008900081801BE060492948FFF77AFCB0B15FA076
:1008A00000F082FD4FF4FA60FFF72EFE38B94FF4E6
:1008B000FA615248FFF7C8FD61A000F075FD002005
:1008C000284908701D480021016081803548007862
:1008D000802802D088282CD113E04FF4FA616148B7
:1008E000FFF7B2FD052000F02DFEFFF707FF4FF4E4
:1008F000FA7000F027FE00F0F3F800202949087094
:1009000017E04FF4FA615748FFF79EFD052000F00D
:1009100019FE42F210711B480088FFF71DFE4FF4CC
:10092000FA7000F00FFE00F0DBF800201D4908709F
:1009300000BF00BF10BD0000BC150008060000206D
:100940000D0AA1AAA1AAA1AAA1AAD7A2B2E1D6B8CA
:10095000CEC6C4A3CABDA1AAA1AAA1AAA1AA0D0AD2
:1009600000000000010000200D0A3E3E3EC7EBCF14
:10097000C8CAE4C8EBD6B8CEC649443C3C3C0D0AD4
:1009800000000000020000200D0A3E3E3ECAE4C8FE
:10099000EBB5C4D6B8CEC64944A3BA25643C3C3CAA
:1009A0000D0A00000C0000200D0A3E3E3EC7EBBDC4
:1009B000ABD0E8D2AAD7A2B2E1B5C4CAD6D6B8B0F5
:1009C000B4D1B9D6B8CEC6C4A3BFE934B4CE3C3C8A
:1009D0003C0D0A00CA1500080D0AA1AAA1AAA1AAE5
:1009E000A1AAC9BEB3FDD6B8CEC6C4A3CABDA1AA2A
:1009F000A1AAA1AAA1AA0D0A000000002D000020B2
:100A00000D0A3E3E3ED2D1C9BEB3FDD6B8CEC63CDD
:100A10003C3C0D0A00000000C31500080D0AA1AA05
:100A2000A1AAA1AAA1AAC7E5BFD5D6B8CEC6C4A31C
:100A3000CABDA1AAA1AAA1AAA1AA0D0A00000000EC
:100A40000D0AA1A1A1A1A1A13E3E3ED2D1C7E5BF01
:100A5000D5D6B8CEC63C3C3CA1A1A1A1A1A10D0A0E
:100A6000000000000D00002010B504460B491120C5
:100A700000F01AF802E0012000F064FD0848007858
:100A8000102802DA601E041EF5D106488079072876
:100A900002D10448407A10BDFF20FCE798000020F6
:100AA00000000020EC00002070B505460E46002432
:100AB0000BE0315D084800F070FC00BF8021064863
:100AC00000F09DFB0028F9D0641CAC42F1DB002053
:100AD0000249087070BD0000004400400000002082
:100AE00010B502490C20FFF7DFFF10BD3D000020CC
:100AF00030B500228B071C0F0F2303FA04F20B4BB7
:100B00008C1053F824309343084C8D1044F8253052
:100B100023468C1053F824308C07240F00FA04F479
:100B20002343024C8D1044F8253030BD08000140AD
:100B30002DE9F04102460025002600200023002474
:100B4000002791F803C00CF00F0591F803C00CF0DA
:100B5000100CBCF1000F03D091F802C04CEA05055F
:100B600091F800C0BCF1000F31D0146800202BE0D8
:100B70004FF0010C0CFA00F3B1F800C00CEA0306C8
:100B80009E4220D183004FF00F0C0CFA03F7BC43B8
:100B900005FA03FC4CEA040491F803C0BCF1280FE9
:100BA00006D14FF0010C0CFA00FCC2F814C00AE0A8
:100BB00091F803C0BCF1480F05D14FF0010C0CFABD
:100BC00000FCC2F810C0401C0828D1D31460B1F852
:100BD00000C0BCF1FF0F34DD546800202EE000F1AE
:100BE000080C4FF0010808FA0CF3B1F800C00CEA49
:100BF00003069E4221D183004FF00F0C0CFA03F73D
:100C0000BC4305FA03FC4CEA040491F803C0BCF1B0
:100C1000280F05D100F1080C08FA0CF8C2F814806E
:100C200091F803C0BCF1480F07D100F1080C4FF058
:100C3000010808FA0CF8C2F81080401C0828CED32E
:100C40005460BDE8F081704700BFFEE7704708B50B
:100C50004FF4A06000F064F828208DF80000012017
:100C60008DF803008DF8010000208DF80200684621
:100C700000F01EF827208DF8000001208DF80300F9
:100C800002208DF8010000208DF80200684600F077
:100C90000FF826208DF8000001208DF803000020B9
:100CA0008DF801008DF80200684600F001F808BDDB
:100CB00070B5002100230F22C47804B3154C2468BA
:100CC00004F4E064C4F5E064210AC1F10403CA40FD
:100CD000447804FA03F184781440214309010E4C4E
:100CE0000678A155047804F01F050124AC4005786E
:100CF0006D11AD0005F1E025C5F8004109E004786B
:100D000004F01F050124AC40044D0678761145F827
:100D1000264070BD0CED00E000E400E080E100E062
:100D200002490143024A1160704700000000FA05C1
:100D30000CED00E07047000029B1064AD269024379
:100D4000044BDA6104E0034AD2698243014BDA6161
:100D5000704700000010024029B1064A9269024320
:100D6000044B9A6104E0034A92698243014B9A6101
:100D7000704700000010024030B50021002200241E
:100D800000232D4D6D6805F00C0121B1042905D01B
:100D9000082923D105E0294D056022E0274D056093
:100DA0001FE0254D6D6805F47012234D6D6805F444
:100DB0008034022505EB92421CB9214D5543056054
:100DC0000BE01D4D6D6805F400351DB11C4D5543FC
:100DD000056002E0194D5543056002E0174D0560BE
:100DE00000BF00BF144D6D6805F0F0010909154DF5
:100DF0006B5C0568DD4045600F4D6D6805F4E06192
:100E0000090A104D6B5C4568DD4085600A4D6D68D0
:100E100005F46051C90A0B4D6B5C4568DD40C56047
:100E2000054D6D6805F44041890B074D6B5CC56845
:100E3000B5FBF3F5056130BD0010024000127A00E9
:100E400000093D00B9000020C9000020704710B51E
:100E500000F002F810BD00000CB5002001900090D9
:100E60003348006840F480303149086000BF3048A2
:100E7000006800F4003000900198401C0190009838
:100E800018B90198B0F5A06FF1D12948006800F4B5
:100E9000003010B10120009001E000200090009887
:100EA000012843D12348006840F010002149086020
:100EB0000846006820F0030008600846006840F01B
:100EC000020008601A4840681949486008464068AE
:100ED00048600846406840F48060486008464068C2
:100EE00020F47C1048600846406840F4E8104860F0
:100EF0000846006840F08070086000BF0C48006839
:100F000000F000700028F9D00948406820F0030084
:100F1000074948600846406840F00200486000BF4A
:100F20000348406800F00C000828F9D10CBD00000F
:100F3000001002400020024030B50146B1F1807F30
:100F400001D3012030BD21F07F40401E4FF0E02250
:100F5000506150170F22002807DA13071D0E094BA6
:100F600000F00F04241F1D5503E013071C0E064B51
:100F70001C5400BF00204FF0E02290610720106158
:100F80000020DFE718ED00E000E400E0704700001B
:100F900010B51348006840F0010011490860084688
:100FA0004068104908400E494860084600680E49EC
:100FB00008400B4908600846006820F4802008605B
:100FC0000846406820F4FE0048604FF41F00886027
:100FD000FFF73DFF4FF000600449086010BD0000BE
:100FE000001002400000FFF8FFFFF6FE08ED00E0F1
:100FF00010B540F22551134800F00EF9D8B1114850
:1010000000F0C6F9C4B21048007800F0800090B932
:101010000D480078142808DA0B4801780078401C45
:10102000094A10700948445405E00748007840F028
:1010300080000549087040F22551024800F0C4F8CC
:1010400010BD00000044004000000020EC00002023
:1010500010B540F22551134800F0DEF8E0B1114818
:1010600000F096F9C4B21048007800F0800090B902
:101070000D480078062808DA0B4801780078401CF3
:10108000094A10700948445405E00748007840F0C8
:1010900080000549087000BF40F22551014800F06A
:1010A00093F810BD00480040010000200600002019
:1010B00000B585B001210420FFF74EFE0121480450
:1010C000FFF73AFE18208DF813000420ADF8100049
:1010D00003208DF8120004A91648FFF729FD04200B
:1010E0008DF813000820ADF8100004A91148FFF78F
:1010F0001FFD4FF4614000900020ADF80C000C2063
:10110000ADF80A000020ADF80800ADF80600ADF813
:1011100004006946084800F0CFF8012240F225514A
:10112000054800F0A3F80121034800F05CF805B081
:1011300000BD0000000801400044004000B585B03B
:1011400001210820FFF708FE01218804FFF7F4FDC4
:1011500018208DF813004FF48060ADF810000320C4
:101160008DF8120004A91648FFF7E2FC04208DF860
:1011700013004002ADF8100004A91148FFF7D8FC95
:101180004FF4165000900020ADF80C000C20ADF884
:101190000A000020ADF80800ADF80600ADF8040024
:1011A0006946084800F088F8012240F225510548B8
:1011B00000F05CF80121034800F015F805B000BD0F
:1011C000000C01400048004010B50022002340F60A
:1011D0006A14A14200D100BF0A1201249440A3B2B4
:1011E000DC43048010BD21B1828942F40052828127
:1011F00004E082894DF6FF731A40828170470246EF
:101200000020B1F5007F00D100BF13880B400BB167
:10121000012000E00020704770B502460024002342
:101220000025002040F66A16B14200D100BFC1F38C
:10123000421501F01F03012606FA03F3012D02D126
:101240009689334006E0022D02D1168A334001E030
:10125000968A33400C12012606FA04F416883440AC
:1012600013B10CB1012000E0002070BDF0B50346C1
:10127000002400260025002040F66A17B94200D15C
:1012800000BF1846C1F3421401F01F06012707FAF8
:1012900006F5012C01D10C3004E0022C01D11030F4
:1012A00000E014301AB107682F43076002E00768B6
:1012B000AF430760F0BD00002DE9F04786B005465A
:1012C0000E460024A24600BFA1460027B08900B107
:1012D00000BF2F462C8A4CF6FF700440F088044370
:1012E0002C82AC894EF6F3100440B0883189084353
:1012F000718908430443AC81AC8A4FF6FF40044037
:10130000B0890443AC8201A8FFF736FD1F4887422D
:1013100002D1DDF810A001E0DDF80CA0A88900F4EE
:10132000004040B10AEBCA0000EB0A1031684900E6
:10133000B0FBF1F807E00AEBCA0000EB0A103168D5
:101340008900B0FBF1F86420B8FBF0F0040120093B
:10135000642101FB1089A88900F4004040B13220CB
:1013600000EBC900B0FBF1F000F00700044308E017
:10137000322000EB09106421B0FBF1F000F00F0007
:1013800004432C8106B0BDE8F0870000003801401E
:1013900001468888C0F308007047C1F308028280C4
:1013A000704700BFFEE700000FB4054B10B503A95E
:1013B000044A029800F01CF810BC5DF814FB000011
:1013C0008D150008E400002000487047E800002068
:1013D00002E008C8121F08C1002AFAD170477047FE
:1013E000002001E001C1121F002AFBD1704700005C
:1013F0002DE9FF4F89B09B460446002506E02528CD
:101400000BD05A460B999047641C6D1C207800281D
:10141000F5D10DB02846BDE8F08F0027B84601226F
:10142000474900E0074314F8013F203B02FA03F06C
:101430000842F7D120782E2819D114F8010F47F06F
:1014400004072A280ED06FF02F022078A0F1300177
:1014500009290CD808EB880102EB410100EB0108D7
:10146000641CF2E70A98641C50F8048B0A902078F8
:101470000028CED0642808D0692806D075281ED050
:101480005A460B9990476D1C58E00A994FF00A098B
:1014900001C90A91002802DA40422D2102E03905F3
:1014A00004D52B218DF82010012103E0F90704D089
:1014B0002021F7E78A4608AE0DE00021FAE70A99F5
:1014C0004FF00A0901C90A91F7E74946FEF77FFE86
:1014D000303106F8011D0028F7D1ADEB060000F110
:1014E0002009780701D44FF00108C84502DDA8EBB8
:1014F000090000E000208046002706E008A85A46C0
:10150000C05D0B9990476D1C7F1C5745F6DB04E0CE
:1015100030205A460B9990476D1CB8F10001A8F194
:101520000108F5DC05E016F8010B5A460B999047C7
:101530006D1CB9F10001A9F10109F4DC641C65E737
:101540000928010070B504460F4800684FF47A710D
:10155000B0FBF1F63046FFF7EFFC002508E000BFD6
:101560004FF0E020006900F480300028F8D06D1CB6
:10157000A542F4D34FF0E020006920F001004FF0C5
:10158000E021086170BD0000D000002070B5044665
:101590000D46E1B20548FFF700FF00BF8021034878
:1015A000FFF72DFE0028F9D0204670BD004800400E
:1015B000FFF7F0F801E0FFF7F9F8FCE7456E726F0E
:1015C0006C6C00456D707479000044656C657465E1
:1015D0000000404040404040404040414141414186
:1015E00040404040404040404040404040404040FB
:1015F000404005020202020202020202020202024C
:10160000020220202020202020202020020202028E
:1016100002020290909090909010101010101010F4
:1016200010101010101010101010101010020202E4
:10163000020202888888888888080808080808083C
:10164000080808080808080808080808080202022C
:1016500002400000D21500087816000800000020A3
:10166000EC000000D013000864170008EC00002014
:1016700014040000E0130008000000000000000057
:101680000000000000EF01FFFFFFFF0100073C0327
:101690000101000049EF01FFFFFFFF0100073C02CD
:1016A0000404020050EF01FFFFFFFF0100073C02AE
:1016B000020202004CEF01FFFFFFFF0100033300B5
:1016C00037EF01FFFFFFFF0100030D0011EF01FFE6
:1016D000FFFFFF010003300034EF01FFFFFFFF01B8
:1016E00000083100000400160000EF01FFFFFFFFBB
:1016F000010003010005EF01FFFFFFFF01000402ED
:10170000010008EF01FFFFFFFF01000402020009D2
:10171000EF01FFFFFFFF01000804010000FFFF02CF
:101720000CEF01FFFFFFFF0100070C0000000100AC
:101730000000000000010203040102030406070880
:10174000090204060800000000A24A04000000008C
:101750000000000001020304060708090000000061
:041760000000000085
:0400000508000131BD
:00000001FF
